:020000041004E6
:1000000000600020391104109D320410A732041042
:10001000AA5555AA45554C420000000000000000BA
:10002000000000000000000000000000AD320410DD
:10003000000000000000000035100410B73204106A
:100040003F100410491004100000000000000000E0
:10005000C132041053100410CF3204108F1004105A
:100060000000000000000000000000000000000090
:100070000000000099100410A3100410AD1004102B
:10008000000000005D1004106710041071100410CF
:100090007B10041085100410C1100410B710041058
:1000A0000000000000000000000000000000000050
:1000B0000000000000000000000000000000000040
:1000C000EFF31482EFF30981002080F31488BFF36B
:1000D0006F8FF0B543464C4655465E466746F8B4CA
:1000E000164CEFF30883236006B4154C2068154CBA
:1000F0002060154C2068154C2060154C2068154C6C
:100100002060154C276800202060BFF34F8F30BF60
:1001100027600A4C246884F3088882B003BCF8BCCA
:100120009846A146AA46B346BC46F0BC04BC80F340
:10013000098881F31488BFF36F8F104708000020EF
:1001400004ED00E05017002024ED00E04C170020E3
:1001500000E200E05417002008002040002243087D
:100160008B4274D303098B425FD3030A8B4244D37F
:10017000030B8B4228D3030C8B420DD3FF220902C1
:1001800012BA030C8B4202D31212090265D0030B80
:100190008B4219D300E0090AC30B8B4201D3CB0376
:1001A000C01A5241830B8B4201D38B03C01A5241B8
:1001B000430B8B4201D34B03C01A5241030B8B42BA
:1001C00001D30B03C01A5241C30A8B4201D3CB02A5
:1001D000C01A5241830A8B4201D38B02C01A52418A
:1001E000430A8B4201D34B02C01A5241030A8B428D
:1001F00001D30B02C01A5241CDD2C3098B4201D3A5
:10020000CB01C01A524183098B4201D38B01C01A22
:10021000524143098B4201D34B01C01A5241030999
:100220008B4201D30B01C01A5241C3088B4201D348
:10023000CB00C01A524183088B4201D38B00C01AF5
:10024000524143088B4201D34B00C01A5241411A1C
:1002500000D20146524110467047FFE701B5002029
:1002600000F0F0F802BDC0460029F7D076E77047ED
:1002700003460B437FD4002243088B4274D3030907
:100280008B425FD3030A8B4244D3030B8B4228D3A8
:10029000030C8B420DD3FF22090212BA030C8B42CE
:1002A00002D31212090265D0030B8B4219D300E06E
:1002B000090AC30B8B4201D3CB03C01A5241830BF3
:1002C0008B4201D38B03C01A5241430B8B4201D3A3
:1002D0004B03C01A5241030B8B4201D30B03C01ACC
:1002E0005241C30A8B4201D3CB02C01A5241830A46
:1002F0008B4201D38B02C01A5241430A8B4201D375
:100300004B02C01A5241030A8B4201D30B02C01A9E
:100310005241CDD2C3098B4201D3CB01C01A524105
:1003200083098B4201D38B01C01A524143098B428E
:1003300001D34B01C01A524103098B4201D30B0177
:10034000C01A5241C3088B4201D3CB00C01A52419C
:1003500083088B4201D38B00C01A524143088B4261
:1003600001D34B00C01A5241411A00D201465241FA
:10037000104670475DE0CA0F00D04942031000D319
:100380004042534000229C4603098B422DD3030A6E
:100390008B4212D3FC22890112BA030A8B420CD37E
:1003A000890192118B4208D3890192118B4204D3A7
:1003B00089013AD0921100E08909C3098B4201D327
:1003C000CB01C01A524183098B4201D38B01C01A61
:1003D000524143098B4201D34B01C01A52410309D8
:1003E0008B4201D30B01C01A5241C3088B4201D387
:1003F000CB00C01A524183088B4201D38B00C01A34
:100400005241D9D243088B4201D34B00C01A52410A
:10041000411A00D20146634652415B10104601D397
:100420004042002B00D54942704763465B1000D321
:10043000404201B5002000F005F802BD0029F8D0C7
:1004400016E770477047C046437802781B021A438C
:100450008378C0781B041343000618437047C046D6
:10046000030A4B70030C8B70030E0870CB7070473F
:1004700003005A7800781202024398781979000430
:100480000243D878000610435A7912020A43997938
:1004900009040A43D979090611437047030A5370C6
:1004A000030C9370030ED3700B0A53710B0C9371F2
:1004B0000B0E10701171D3717047C04680B584B0B7
:1004C00000AF0200BB1D1A800E4B1B680E4A934200
:1004D00014D1BB1D1B88DB029A100E23FB181A8057
:1004E0000A4B3F221A81094B0E22BA1812889A61D0
:1004F000064B11221A8000F02FF800E0C046BD46DE
:1005000004B080BD14000020CCBCECFC0000104006
:1005100080B582B000AF786039600C4B1B680C4A24
:1005200093420FD10B4B3F221A810A4B7A689208F3
:100530009A61084B3A681A64064B33221A8000F01D
:100540000BF800E0C046BD4602B080BD140000209C
:10055000CCBCECFC0000104080B500AFC046054BA1
:100560001B8ADB07DB0FDBB2012BF8D1C046BD468F
:1005700080BDC0460000104080B584B000AF7860F8
:100580000F23FB1800221A700F23FB187A681279C8
:100590001A707B681B79002B0AD18023DB0580222F
:1005A000D20551687A681268D2430A405A6010E056
:1005B0007B681B79062B0CD10F23FB1800221A70C5
:1005C0008023DB058022D20551687A6812680A43CD
:1005D0005A600E23FB1800221A70ACE07B681A6880
:1005E0000E23FB181B78DA401300DAB20D23FB1838
:1005F00001210A401A700D23FB181B78002B00D133
:1006000092E00E23FB181B78072B19D88023DB05FB
:100610008022D205D26A0E217918097889000F202C
:1006200088400100C9430A400F21791808780E213B
:10063000791809788900884001000A43DA6273E07A
:100640000E23FB181B78072B20D90E23FB181B78D1
:100650000F2B1BD88023DB058022D205126B0E21C5
:1006600079180978083989000F2088400100C943AA
:100670000A400F21791808780E217918097808396D
:100680008900884001000A431A634DE00E23FB18DD
:100690001B780F2B20D90E23FB181B78172B1BD888
:1006A0008023DB058022D205526B0E217918097850
:1006B000103989000F2088400100C9430A400F21EA
:1006C000791808780E21791809781039890088403E
:1006D00001000A435A6327E00E23FB181B78172BEF
:1006E00022D98023DB058022D205128F92B212B26A
:1006F0000E2179180978183989000F2088400100E7
:1007000009B2C94309B20A4011B20F22BA181078CF
:100710000E22BA181278183A92009040020012B2D3
:100720000A4312B292B21A870E23FB181A780E23CC
:10073000FB1801321A700E23FB181B78192B00D8F6
:100740004CE77B685B79012B09D18023DB05802294
:10075000D205D1687A6812680A43DA6009E080231A
:10076000DB058022D205D1687A681268D2430A403C
:10077000DA607B689B79012B09D18023DB0580221D
:10078000D20591687A6812680A439A6009E080236A
:10079000DB058022D20591687A681268D2430A404C
:1007A0009A60C046BD4604B080BD80B500AFC0238E
:1007B0001B061A6880210A431A60C0231B061A68A8
:1007C00080218A431A60C046BD4680BD80B582B094
:1007D00000AF78600A00FB1C1A70FB1C1B78012B11
:1007E00006D1094B084A116A7A680A431A6206E080
:1007F000054B054A126A7968C9430A401A62C04625
:10080000BD4602B080BDC0460000904080B584B0B7
:1008100000AF664B1B7ADBB2BB60654B1B899BB29A
:100820007B600E23FB1800221A80BB68002B0CD1C2
:100830007B6809221340092B07D10E23FB180E22D7
:10084000BA18128820210A431A80BB68002B0CD1E9
:100850007B6811221340112B07D10E23FB180E22A7
:10086000BA18128840210A431A80BB68002B0CD1A9
:100870007B6821221340212B07D10E23FB180E2267
:10088000BA18128880210A431A80BB68002B0DD148
:100890007B6841221340412B08D10E23FB180E2206
:1008A000BA181288802149000A431A80BB68002BBD
:1008B0000DD17B6881221340812B08D10E23FB18B8
:1008C0000E22BA181288802189000A431A80BB6858
:1008D000002B10D17A680223FF331A400223FF3322
:1008E0009A4208D10E23FB180E22BA1812888021D2
:1008F000C9000A431A80BB68002B0ED17B682D4AC1
:1009000013402C4A934208D10E23FB180E22BA182A
:100910001288802109010A431A80BB68002B0CD180
:100920007B6805221340052B07D10E23FB180E22EE
:10093000BA18128810210A431A80BB68002B0CD108
:100940007B6803221340032B07D10E23FB180E22D2
:10095000BA18128808210A431A80BB68022B07D1F3
:100960000E23FB180E22BA18128801210A431A809E
:10097000BB68042B07D10E23FB180E22BA1812886D
:1009800002210A431A80BB68082B07D10E23FB18EB
:100990000E22BA18128804210A431A800E23FB186B
:1009A0001B881800BD4604B080BDC04600009040C2
:1009B000000010480104000080B582B000AF0200C2
:1009C000FB1D1A70FB1D1B78002B05D0074A136B0B
:1009D00001210B43136304E0044A136B01218B4391
:1009E0001363C046BD4602B080BDC0460000304023
:1009F00090B585B000AF78609D4B1B6B1B07DB0F7C
:100A0000DBB2002B09D17B681B681B0119009948D8
:100A1000FFF7A4FB0300FB6008E07B681B68DB00BA
:100A200019009448FFF79AFB0300FB60FB68DA09A2
:100A30000823FB181A808E4A0823FB181B8893840E
:100A40000823FB181B88DB011A00FB689B1A013383
:100A50005A080A23FB181A800A23FB181B883F2B0D
:100A600010D90823FB181A880823FB1801321A80B2
:100A70000A23FB181B883F3B9AB20A23FB183F212D
:100A80000A401A807A4A0A23FB181B88D9B2282305
:100A9000D15477497B681B791A1C03231340D8B2C1
:100AA0002C228B5C03242040440160208343181CCB
:100AB000231C03438B546E4A7B685B79191C032308
:100AC0000B40D9B2137F03200140480160218B43C2
:100AD000191C031C0B43137765497B689B791A1C0F
:100AE00001231340D8B22C228B5C01242040C40087
:100AF00008208343181C231C03438B545C4A7B68E7
:100B00009B79191C01230B40D9B2137F01200140AE
:100B1000C80008218B43191C031C0B4313777B6807
:100B2000DB79002B0BD152492C228B5C02208343B2
:100B30008B544F4A137F02218B43137730E07B683D
:100B4000DB79022B16D14A492C228B5C022003430D
:100B50008B5447492C228B5C042083438B54444A9A
:100B6000137F02210B431377414A137F04218B43E8
:100B7000137715E03E492C228B5C022003438B54F3
:100B80003B492C228B5C042003438B54384A137F4F
:100B900002210B431377364A137F04210B4313774B
:100BA000334A7B681B7A191C01230B40D9B2136BA3
:100BB000012001404902304803400B4313632C4A93
:100BC0007B681B7A5B08DBB2191C01230B40D9B28E
:100BD000136B012001400902284803400B431363B3
:100BE000234A7B685B7A191C01230B40D9B2136B33
:100BF000012001408903224803400B4313631C4A30
:100C00007B685B7A5B08DBB2191C01230B40D9B20D
:100C1000136B01200140C9031A4803400B431363BF
:100C200013497B689B7A1A1C01231340D8B22C22EB
:100C30008B5C01242040040110208343181C231CDA
:100C400003438B540A4A7B689B7A191C01230B408F
:100C5000D9B2137F01200140080110218B43191CD8
:100C6000031C0B431377C046BD4605B090BDC0467C
:100C7000000030400000127AFFFDFFFFFFFEFFFF83
:100C8000FFBFFFFFFF7FFFFF80B582B000AF020014
:100C9000BB1D1A807B1D0A1C1A707B1D1B78002B44
:100CA00009D00E490D4B1B8F9AB2BB1D1B881343F5
:100CB0009BB20B870DE00949084B1B8F9BB21BB2FF
:100CC000BA1D0020125ED24312B213401BB29BB277
:100CD0000B87C046BD4602B080BDC0460000304014
:100CE00080B582B000AF0200BB1D1A80054ABB1D53
:100CF0001B88DB05DB0D9BB21380C046BD4602B0EE
:100D000080BDC0460000304080B500AF044B1B885A
:100D10009BB2FF2213409BB21800BD4680BDC04667
:100D20000000304080B582B000AF78607B68002B57
:100D300008DA0B4B5B687A68134001D001230BE0A3
:100D4000002309E0064B1B8B9BB21A007B68134003
:100D500001D0012300E000231800BD4602B080BD91
:100D60000000304080B582B000AF0200BB1D1A8089
:100D7000074B9B8F9BB2BA1D128813409BB2002B6E
:100D800001D0012300E000231800BD4602B080BD61
:100D90000000304090B583B000AF0200FB1D1A7018
:100DA0000A49FB1D1B7807221340D8B234228B5C02
:100DB00007242040C40038208343181C231C03430D
:100DC0008B54C046BD4603B090BDC04600003040C5
:100DD000B0B582B000AF02003960FB1D1A70FB1D78
:100DE0001B787F2B32D92F4CFB1D1B781A000F2349
:100DF0001340083B99082B4AFB1D1B7818000F2352
:100E00000340083B9B0806339B00D31804331B6840
:100E1000FA1D1278100003220240D200FF209040F9
:100E20000200D2431A403B689B01FF201840FB1D83
:100E30001B781D0003232B40DB00984003001A435E
:100E40008B1D9B00E31804331A6027E0164CFB1D32
:100E50001B785BB29B081449FA1D127852B29208B3
:100E6000C03292005258F91D097808000321014050
:100E7000C900FF2088400100C94311403A6892012F
:100E8000FF201040FA1D1278150003222A40D200DC
:100E9000904002000A43C0339B001A51C046BD4631
:100EA00002B0B0BD00ED00E000E100E080B582B02E
:100EB00000AF78607B689B78002B18D07B681B782C
:100EC0005AB27B685B7819001000FFF781FF124966
:100ED0007B681B785B09DBB218007B681B781A0003
:100EE0001F23134001229A4083005A5010E00A4900
:100EF0007B681B785B09DBB218007B681B781A00E3
:100F00001F23134001229A40030020339B005A50B4
:100F1000C046BD4602B080BD00E100E080B582B0B1
:100F200000AF0200FB1D1A70FB1D1B78002B06D0C2
:100F3000084B084A126904210A431A6105E0054B6F
:100F4000044A126904218A431A61C046BD4602B0B0
:100F500080BDC04600ED00E0B0B582B000AF020039
:100F60003960FB1D1A70FB1D1B787F2B32D92F4C6B
:100F7000FB1D1B781A000F231340083B99082B4ACE
:100F8000FB1D1B7818000F230340083B9B0806330A
:100F90009B00D31804331B68FA1D1278100003223B
:100FA0000240D200FF2090400200D2431A403B682A
:100FB0009B01FF201840FB1D1B781D0003232B40C5
:100FC000DB00984003001A438B1D9B00E318043399
:100FD0001A6027E0164CFB1D1B785BB29B08144976
:100FE000FA1D127852B29208C03292005258F91D7E
:100FF0000978080003210140C900FF208840010052
:10100000C94311403A689201FF201040FA1D12783E
:10101000150003222A40D200904002000A43C03348
:101020009B001A51C046BD4602B0B0BD00ED00E0C5
:1010300000E100E080B500AFC046BD4680BD80B590
:1010400000AFC046BD4680BD80B500AFC046BD46BE
:1010500080BD80B500AFC046BD4680BD80B500AF45
:10106000C046BD4680BD80B500AFC046BD4680BD10
:1010700080B500AFC046BD4680BD80B500AFC0465C
:10108000BD4680BD80B500AFC046BD4680BD80B5C1
:1010900000AFC046BD4680BD80B500AFC046BD466E
:1010A00080BD80B500AFC046BD4680BD80B500AFF5
:1010B000C046BD4680BD80B500AFC046BD4680BDC0
:1010C00080B500AFC046BD4680BD000080B582B08F
:1010D00000AF174A137A01210B431372154B0022FC
:1010E0001A60FB1D00221A700FE0FFF78FFB030050
:1010F0001A003B1D1A803B1D1B889BB2002B09D197
:10110000FB1D1A78FB1D01321A70FB1D1B78022B88
:10111000EBD900E0C0463B1D1B889BB21F2B01D9B9
:10112000002300E001231800BD4602B080BDC04688
:10113000000020401400002080B584B000AFFFF70D
:10114000C5FF0300012B39D1224BFB60224BBB6052
:1011500007E0BB681A1DBA60FA68111DF9601268D1
:101160001A60BA681D4B9A42F3D31D4BFB601D4BAE
:10117000BB6007E0BB681A1DBA60FA68111DF96010
:1011800012681A60BA68184B9A42F3D3174BBB60C7
:1011900004E0BB681A1DBA6000221A60BA68144BDA
:1011A0009A42F6D3134BBB6004E0BB681A1DBA60C9
:1011B00000221A60BA68104B9A42F6D30F4B7B603C
:1011C0007B6883F3088802F0CBF9C046BD4604B0C3
:1011D00080BDC046F4350510B41700206818002003
:1011E000C83505100800002034000020C000002091
:1011F000CC020020CC020020B417002000600020A8
:1012000080B582B000AFFB1D00221A700BE0FB1D01
:101210001B78224AD35CDBB20133D9B2FB1DFA1D25
:1012200012788A181A70FB1D1B781C4AD35CDBB23B
:10123000002BECD1FB1D1B7803331F2B2ADCFB1D7D
:101240001B78164A0221D154FB1D1B780133134A27
:101250002121D154FB1D1B780233104A0821D1549F
:10126000FB1D1B7803330D4A0021D1549023DB056D
:10127000FA1D1178094A8A1892B21100802252028E
:101280000A43DA60C0469023DB05DA6880235B02FC
:101290001340F8D1C046BD4602B080BD0003002017
:1012A00080B584B000AF0200FB1D1A700F23FB183D
:1012B00000221A700EE00F23FB181B78234AD35C20
:1012C000DBB20133D9B20F23FB180F22BA18127800
:1012D0008A181A700F23FB181B781C4AD35CDBB2E8
:1012E000002BE8D10F23FB181B7803331F2B1BDCCB
:1012F0000F23FB181B78154A0221D1540F23FB182A
:101300001B780133114A3521D1540F23FB181B7868
:1013100002330E4AF91D0978D1540F23FB181B78AC
:1013200003330A4A0021D154094B02221A70084B98
:1013300035225A70064BFA1D12789A70044B00221F
:10134000DA70C046BD4604B080BDC0460003002030
:101350001C00002080B584B000AF0200FB1D1A7095
:10136000FB1D1B78002B11D09023DB051B4A92B28A
:101370001100802252020A43DA60C0469023DB0546
:10138000DA6880235B021340F8D122E00F23FB18B8
:10139000124A92781A70114B9B78DBB20422934365
:1013A000DAB20E4B9A709023DB050C4A92B2110010
:1013B000802252020A43DA60C0469023DB05DA68D5
:1013C00080235B021340F8D1044B0F22BA18127825
:1013D0009A70C046BD4604B080BDC0461C000020C7
:1013E00090B591B000AF0200FB1D1A70BB1D0A1C26
:1013F0001A700C23FB18824A13CA13C313CA13C3EF
:1014000012781A702823FB18180000F0EFFBFB1D60
:101410001B78002B00D1C4E00C23FB1844229A73E4
:10142000784A137A01210B4313720C23FB184C22C8
:10143000DA720C23FB1820221A720C23FB18B2223A
:101440005A740C23FB185B221A756F4B1B68FB63E5
:10145000FB6B1B0C6D4A934219D10C23FB18DB7DEF
:10146000DBB270229343DAB20C23FB18DA750C233B
:10147000FB18DB7DDAB2FB6BDBB21B01DBB2702148
:101480000B40DBB21343DAB20C23FB18DA75604B66
:101490001B68FB63FB6B1B0C5C4A934219D10C234A
:1014A000FB185B79DBB230229343DAB20C23FB18D2
:1014B0005A710C23FB185B79DAB2FB6BDBB21B01B0
:1014C000DBB230210B40DBB21343DAB20C23FB1842
:1014D0005A71504B1B68FB63FB6B1B0C4B4A9342CE
:1014E00017D10C23FB18DB7DDBB203229343DAB266
:1014F0000C23FB18DA750C23FB18DB7DDAB2FB6BCF
:10150000DBB203210B40DBB21343DAB20C23FB182E
:10151000DA750C23FB18DB7ADBB204229343DAB2D0
:101520000C23FB18DA722823FB185B781B01282296
:10153000BA1892781343112B15DD0C23FB18DB7DB1
:10154000DBB204221343DAB20C23FB18DA753B2317
:10155000FB180C22BA18D27D1A703B23FB181B789B
:101560001800FFF79DFE9023DB050C22BA1892B2FB
:101570001100802252020A43DA60C0469023DB0544
:10158000DA6880235B021340F8D12823FB185B78CC
:101590001B012822BA1892781343112B01DDFFF7A3
:1015A0002FFEC0461C4B1B8B9BB2002BFAD01A4B54
:1015B00001221A83184B17229A81174B00221A61B5
:1015C000BB1D1B78002B0CD09023DB051B697B63B4
:1015D000C0469023DB051A697B6B534010221340F1
:1015E000F7D0FB1D1B78002B02D00C4B15221A7074
:1015F0000B4B0C4A1A60C046BD4611B090BDC046A8
:10160000E02F051000002040E807001055AA000058
:10161000E4070010B0070010000010480000C040B0
:1016200014000020CCBCECFC80B500AF2C4B082291
:101630009A8002235B4203211800FFF78DFC0123EF
:101640005B4203211800FFF787FC03210020FFF70E
:1016500083FC03210120FFF77FFC03210420FFF717
:101660007BFC03210520FFF777FC00210620FFF714
:1016700073FC03210720FFF76FFC03210D20FFF708
:101680006BFC03210E20FFF767FC03210F20FFF7FF
:1016900063FC03211120FFF75FFC03211220FFF7F9
:1016A0005BFC03211320FFF757FC03211420FFF7F5
:1016B00053FC03211520FFF74FFC03211620FFF7F1
:1016C0004BFC03211720FFF747FC01210120FFF706
:1016D00087FE044B044A1A6262B6C046BD4680BD0E
:1016E000000010400000904066000E0080B582B0FF
:1016F00000AF0200FB1D1A70C0462020FFF712FB4E
:101700000300012BF9D0FB1D1B789BB21800FFF7DB
:10171000E7FAC046BD4602B080BD000080B588B083
:1017200000AF786001210920FFF750F800F054FA6B
:1017300003005A1E334B9200D2580C23FB181A6038
:1017400000F04AFA03005A1E2F4B9200D358DAB227
:101750000C23FB181A710C23FB1800229A710C231E
:10176000FB1800225A710C23FB181800FEF704FF27
:1017700000F032FA03005A1E244B9200D2580C2378
:10178000FB181A6000F028FA03005A1E204B920042
:10179000D358DAB20C23FB181A710C23FB1818006B
:1017A000FEF7EAFE1423FB187A681A601423FB186C
:1017B00003221A711423FB1803225A711423FB18F5
:1017C00000229A711423FB180022DA711423FB18EB
:1017D00000225A721423FB1803221A721423FB18D6
:1017E00001229A721423FB181800FFF701F9002058
:1017F000FFF7D0FA0120FFF7DFF8C046BD4608B07A
:1018000080BDC04670330510743305107833051061
:101810007C33051080B584B000AF0200FB1D1A7048
:101820000C23FB1804221A700C23FB1803225A7095
:101830000C23FB18FA1D12789A700C23FB18180061
:10184000FFF734FBFB1D1B7819001020FFF71CFA73
:10185000C046BD4604B080BD80B582B000AF102048
:10186000FFF780FA031E10D00AE0FFF74DFA0300DD
:10187000DAB2FB1D1A70FB1D0121180000F03AF8C6
:101880001020FFF74FFA031EEFD0C046BD4602B04E
:1018900080BD000080B582B000AF78600B4B7A68E5
:1018A0001A60E1235B021800FFF738FF0120FFF701
:1018B000B1FF074B1B68986800230222002102F049
:1018C00063F8C046BD4602B080BDC046200300207C
:1018D0000418002080B582B000AF0200FB1D1A7012
:1018E000FB1D1B781800FFF701FFC046BD4602B084
:1018F00080BD000080B582B000AF78600A00BB1CDC
:101900001A80074B1B68002B06D0054B1B68BA1CBE
:1019100011887A6810009847C046BD4602B080BD65
:101920002003002080B582B000AF0200FB1D1A70BA
:101930000B4B1B680B4AF91D0978D154084B1B68E7
:101940005A1C074B1A60064B1A688023DB009A4228
:1019500002D1034B00221A60C046BD4602B080BDD2
:10196000240700202403002080B582B000AF7860F7
:10197000104B1A68104B1B689A4201D1012314E0E6
:101980000D4B1B680D4AD25C7B681A700A4B1B68B2
:101990005A1C094B1A60084B1A688023DB009A42D4
:1019A00002D1054B00221A6000231800BD4602B088
:1019B00080BDC04624070020280700202403002003
:1019C00080B584B000AF78600A00BB1C1A800E237B
:1019D000FB1800221A800FE00E23FB181B887A6880
:1019E000D3181B781800FFF79DFF0E23FB181A88E9
:1019F0000E23FB1801321A800E23FA18BB1C128822
:101A00001B889A42E8D3C046BD4604B080BD0000A2
:101A100080B584B000AF7860104B1B68002B02D1FA
:101A20000E4B0F4A1A600D4B1B68FB600B4B1A687C
:101A30007B68D2180B4B9A4205D90B4B0C221A60CB
:101A400001235B4206E0054B1A687B68D218034B02
:101A50001A60FB681800BD4604B080BD2C1700203A
:101A60002C0700202C170020B017002080B582B072
:101A700000AF786001235B421800BD4602B080BD14
:101A800080B582B000AF786039603B6880229201F7
:101A90005A6000231800BD4602B080BD80B582B0F8
:101AA00000AF786001231800BD4602B080BD80B54C
:101AB00084B000AFF860B9607A6000231800BD46BA
:101AC00004B080BD80B586B000AFF860B9607A60C0
:101AD00000237B6109E07B69BA68D3181B78180082
:101AE000FFF7F8FE7B6901337B617A697B689A4274
:101AF000F1DB7B681800BD4606B080BD80B586B0BE
:101B000000AFF860B9607A6000237B610EE07B690A
:101B1000BA68D3181800FFF727FF031E03D17B69AB
:101B200001337B6102E07B69002B04D17A697B6819
:101B30009A42ECD300E0C0467B691800BD4606B06F
:101B400080BD80B582B000AF78607B681800FFF779
:101B50000BFF031E01D1012300E000231800BD4646
:101B600002B080BD80B584B000AFF860B9607A6023
:101B70007A68B968FB68180001F05FFEC046BD4690
:101B800004B080BD80B584B000AFF860B9607A6001
:101B90007A68B968FB68180001F04FFEC046BD4680
:101BA00004B080BD80B582B000AF786039603A681B
:101BB0007B680021180001F05BFEC046BD4602B004
:101BC00080BD000080B500AF024B01221A70C046F4
:101BD000BD4680BD3017002080B500AF024B1B789A
:101BE000DBB21800BD4680BD3017002080B584B040
:101BF00000AF78601F4BFB601F4BBB601F4BDB6966
:101C00001B061B0FDBB21A007B685A701B4BDB698B
:101C10001B071B0FDBB21A007B689A70FB681A68FF
:101C20007B685A607B685B68154A93420CD1BB683D
:101C30001B68144A934203D17B6804221A7006E0A1
:101C40007B6802221A7002E07B6801221A707B68AE
:101C50005B78002B02D17B6801225A700A4B9B8A69
:101C60009BB201339B001A007B689A60C046BD4658
:101C700004B080BD280090401C000010000090407F
:101C800041A0000244A000F20000104080B588B0DE
:101C900000AFF860B9607A601423FB181800FFF7F2
:101CA000A5FF1423FB181A78FB681A701423FB187D
:101CB0005A78BB681A701423FB189A787B681A70DC
:101CC000C046BD4608B080BD80B584B000AFF860A6
:101CD000B9607A607A68B968FB68180001F0ADFDF8
:101CE00003001800BD4604B080BD80B584B000AFCD
:101CF000F860B9607A607A68B968FB68180001F02A
:101D0000B7FD03001800BD4604B080BD80B584B0A7
:101D100000AFF860B9607A607A68B968FB6818004B
:101D200001F07CFD03001800BD4604B080BD80B505
:101D300082B000AF0200FB1D1A7003231800BD46DD
:101D400002B080BD80B582B000AF0200FB1D1A70EA
:101D500003231800BD4602B080BD000080B584B0EA
:101D600000AF01235B42FB60FEF750FD03001A0049
:101D7000BB1D1A80BB1D1B889BB21A008023DB0091
:101D8000134023D1154B1B889BB21A000823134024
:101D90001CD09023DB051B69BB60114B1A68BB6824
:101DA000D31A1B021B12DA179B185340FB60FB6807
:101DB000202B0BDC9023DB051B692D33BB60C04659
:101DC0009023DB051A69BB689A42F9D9054B1522A5
:101DD0001A70C046BD4604B080BDC046C000002099
:101DE000180000200000C04090B5AD4CA54400AFE5
:101DF0000200AC4B9A2080008446BC4463441A70B5
:101E0000A94B9A2292009446BC4463440A1C1A705F
:101E1000F823FB181800FFF7E9FEA44B1B7ADBB28E
:101E200097229200BA181360A14B9B889BB296220E
:101E30009200BA1813609F4B1B6895229200BA1843
:101E400013609D4BFB1800221A7018E09A4BFB1888
:101E50001A789849984BFB181B78C0339B00595847
:101E6000964B9A2080008446BC4463449200D15033
:101E7000914BFB181A78904BFB1801321A708E4B5D
:101E8000FB181B78072BE1D98D4B1B68942292001D
:101E9000BA1813608B4B1B6A93229200BA18136016
:101EA0008023DB051B6892229200BA1813608023FE
:101EB000DB055B6891229200BA1813608023DB0572
:101EC0009B6890229200BA1813608023DB05DB68C0
:101ED0008F229200BA1813608023DB051B698E22C3
:101EE0009200BA1813608023DB055B698D22920093
:101EF000BA1813608023DB059B698C229200BA1804
:101F000013608023DB05DB698B229200BA18136013
:101F10008023DB05DB6A8A229200BA1813608023D3
:101F2000DB051B6B89229200BA1813608023DB0546
:101F30005B6B88229200BA1813608023DB051B8F2D
:101F40009BB287229200BA1813608023DB055B6C7A
:101F500086229200BA1813605B4BDB6885229200E0
:101F6000BA181360584B1B7FDBB284229200BA1858
:101F70001360554B9B8C9BB283229200BA1813605E
:101F8000514A2823D35CDBB282229200BA18136034
:101F90004D4A2C23D35CDBB281229200BA18136025
:101FA000494B1B6B80229200BA181360464A3423B7
:101FB000D35CDBB2FE225200BA181360424B1B8F77
:101FC0009BB2FC225200BA1813603F4A4823D35CEC
:101FD000DBB2FA225200BA1813603B4A5023D35C9A
:101FE000DBB2F8225200BA181360374A5423D35C8C
:101FF000DBB2F6225200BA181360334A5823D35C7E
:10200000DBB2F4225200BA1813602F4A5C23D35C6F
:10201000DBB2F2225200BA1813602B4A6023D35C61
:10202000DBB2F0225200BA181360284B1B68EE2274
:102030005200BA181360254B5B68EC225200BA18A4
:102040001360224B1B7CDBB2EA225200BA181360E9
:102050001E4B1B7DDBB2E8225200BA1813601B4AEC
:102060002423D35CDBB2E6225200BA181360174B6C
:102070001B8D9BB2E4225200BA181360134BDB6A2B
:10208000E2225200BA181360104B1B8E9BB2E02262
:102090005200BA181360084BFB1800221A70D4E0E3
:1020A00094FDFFFF9FFDFFFF9EFDFFFF000020400E
:1020B0000000104000E100E06702000070FEFFFF3A
:1020C00020ED00E000009040000030400000404063
:1020D000CF4BFB181B781B05CE4A94466344DE2287
:1020E0005200BA181360CA4BFB181A78DE235B0043
:1020F000FB181B681968C84B9A2080008446BC44B2
:1021000063449200D150C24BFB181A78DE235B0067
:10211000FB181B685968C14B9A2080008446BC4458
:1021200063449200D150BA4BFB181A78DE235B004F
:10213000FB181B689B8B9BB21900B94B9A2080003F
:102140008446BC4463449200D150B14BFB181A78CA
:10215000DE235B00FB181B681B8C9BB21900B14B84
:102160009A2080008446BC4463449200D150A84B1E
:10217000FB181A78DE235B00FB181B689B8C9BB254
:102180001900A94B9A2080008446BC446344920005
:10219000D1509F4BFB181A78DE235B00FB181B689D
:1021A0001B8D9BB21900A14B9A2080008446BC4431
:1021B00063449200D150964BFB181A78DE235B00E3
:1021C000FB181B68D96A9A4B9A2080008446BC444D
:1021D00063449200D1508E4BFB181A78DE235B00CB
:1021E000FB181B684C215B5A9BB21900914B9A203B
:1021F00080008446BC4463449200D150844BFB1859
:102200001A78DE235B00FB181B68196D8A4B9A2035
:1022100080008446BC4463449200D1507C4BFB1840
:102220001A78DE235B00FB181B68996D834B9A209C
:1022300080008446BC4463449200D150744BFB1828
:102240001A78734BFB1801321A70714BFB181B780C
:10225000012B00D83CE7B0231B061B68DC22520090
:10226000BA181360764B5B68DA225200BA18136012
:10227000734B9B68D8225200BA181360704B1B8AAC
:102280009BB2D6225200BA1813606D4B9B8A9BB248
:10229000D4225200BA181360694B9B69D2225200B3
:1022A000BA181360664B1B7FDBB2D0225200BA18FB
:1022B0001360634B1B8E9BB2CE225200BA18136080
:1022C0005F4B5B6BCC225200BA1813605C4B9B6B6C
:1022D000CA225200BA181360594BDB6BC822520055
:1022E000BA181360564B1B6CC6225200BA18136002
:1022F000534B5B6CC4225200BA181360504B9B6C5A
:10230000C2225200BA1813604E4B9B889BB2C02267
:102310005200BA1813604B4B1B899BB2BE2252006D
:10232000BA181360474B1B7CDBB2BC225200BA18B0
:102330001360444B1B7DDBB2BA225200BA18136003
:10234000404B1B8B9BB2B8225200BA1813603D4B16
:102350001B7FDBB2B6225200BA1813603A4B9B883F
:102360009BB2B4225200BA181360374B1B899BB240
:10237000B2225200BA181360334B1B7CDBB2B0227E
:102380005200BA181360304B1B7DDBB2AE225200F4
:10239000BA1813602C4B1B8B9BB2AC225200BA189C
:1023A0001360294B1B7FDBB2AA225200BA181360BC
:1023B000264B1B68A8225200BA181360234B5B6897
:1023C000A6225200BA181360214B1B68A4225200A7
:1023D000BA1813601E4B1B7ADBB2A2225200BA1845
:1023E00013601B4AC0231B01D358002B05D1194B86
:1023F00098229200BA18136004E0002398229200F9
:10240000BA181360024BFB1800221A7079E0C0461C
:10241000670200000000A04068FEFFFF60FEFFFFB3
:1024200058FEFFFF50FEFFFF48FEFFFF40FEFFFF8C
:1024300038FEFFFF30FEFFFF28FEFFFF20FEFFFFFC
:102440000000F0400000D0400000E04010E000E05C
:102450000000704051E5CC1ADB4BFB181A781300D2
:102460009B009B189B00D94A94466344A0225200CB
:10247000BA181360D44BFB181A78A0235B00FB1822
:102480001B685968D24B9A2080008446BC44634440
:102490009200D150CC4BFB181A78A0235B00FB189C
:1024A0001B681968CB4B9A2080008446BC44634467
:1024B0009200D150C44BFB181A78A0235B00FB1884
:1024C0001B689968C44B9A2080008446BC446344CE
:1024D0009200D150BC4BFB181A78A0235B00FB186C
:1024E0001B68D968BD4B9A2080008446BC44634475
:1024F0009200D150B44BFB181A78B34BFB18013241
:102500001A70B14BFB181B78072BA5D98123DB056B
:102510005B689E225200BA1813608123DB051B7B87
:10252000DBB29C225200BA1813608123DB055B8B5F
:102530009BB29A225200BA1813608123DB051B8BD1
:102540009BB298225200BA1813608123DB055B6AA4
:1025500096225200BA1813608123DB059B6A9422ED
:102560005200BA1813608123DB051B889BB29222AC
:102570005200BA181360C0231B069B6890225200B9
:10258000BA181360964B9A2292009446BC44634456
:102590001B78032B08D19023DB059022D2055268CB
:1025A000C02189050A435A60874BFB1800221A7024
:1025B0008C4B1A688C4B1A608B4B1B68503B1A0073
:1025C000894B1A60804BFB181A78874B1B68196877
:1025D000864B9200D1507C4BFB181A787A4BFB1833
:1025E00001321A70804B1B681A1D7F4B1A60764BA4
:1025F000FB181B78132BE5D97D4B1B79DBB28E22A0
:102600005200BA1813607A4B1B78DBB28C2252004E
:10261000BA1813608023DB051B685A0A8C235B0001
:10262000FB181B685340DB438E225200BA18126815
:1026300013408A225200BA1813608A235B00FB18E9
:102640001B68002B01D000F05EFD6A4B9A229200BD
:102650009446BC4463445B781B01664A9A21890016
:102660008C46BC44624492781343112B05DD624BC7
:1026700000221A600020FEF76DFE9023DB055A68E9
:102680005E4B1A600120FEF749FCFDF719FD0020A2
:10269000FEF744FC5A4B1B78DBB2002B00D0C7E09E
:1026A000584A80235B00D358402213405FD1554ADB
:1026B00080235B00D258544B1B6853408822520041
:1026C000BA181360514B5A6A514B1B689A4226D173
:1026D0004C4A80235B00D2584B4B1B689A4207D070
:1026E000484B1B6888225200BA181268134016D152
:1026F000464B5A68474B1B685A4080235B05134082
:102700000DD1424B5A68434B1B685A408023DB046F
:1027100013402CD0404B1B680222134027D03F4B64
:102720001B681B0986225200BA18136086235B00BF
:10273000FB181B6803333A4A93420BD8C0468623E2
:102740005B00FB181B68DA1C344B1B681B099A42A0
:10275000F5D80CE0C046314B1B681A0986235B0094
:10276000FB181B682F498C4663449A42F3D1214BD6
:102770009A2292009446BC4463445B781B011D4A34
:102780009A2189008C46BC44624492781343112BF1
:1027900005DD0120FEF7DEFD174B234A1A60104BC2
:1027A0009A2292009446BC4463441B78032B01D0C8
:1027B00000F0AAFC9023DB059022D20552681B4949
:1027C0000A405A6000F0A0FC67020000080000A068
:1027D000E0FDFFFF00FEFFFFC0FDFFFFA0FDFFFFCC
:1027E0009FFDFFFF00000410581700205C17002019
:1027F0000000204090FEFFFF140000201800002081
:102800000C00002000E100E05417002000ED00E083
:102810004C1700205017002010E000E01000004886
:10282000FFFF0F000400F0FFCCBCECFCFFFFFFCF6C
:10283000B94B01221A83B84B00229A81B64B002271
:102840001A61B64BFB1800221A70B54B1A68B54BCB
:102850001A60B44B1B68503B1A00B24B1A60B14B64
:102860001B68AE4ABA181178AF4A89008A581A60B4
:10287000AA4BFB181A78A94BFB1801321A70A94B06
:102880001B681A1DA74B1A60A44BFB181B78132B4F
:10289000E5D9A64B96229200BA18126892B29A8095
:1028A000A34B95229200BA1812681A609B4BFB1832
:1028B00000221A7018E09E48984BFB181B78974A24
:1028C000BA1811789B4A9A24A400A446BC446244D6
:1028D00089008A58C0339B001A50904BFB181A7815
:1028E0008E4BFB1801321A708C4BFB181B78072B90
:1028F000E1D9914B94229200BA1812681A608F4B5A
:1029000093229200BA1812681A628023DB05922281
:102910009200BA1812681A608023DB059122920097
:10292000BA1812685A608023DB0590229200BA1808
:1029300012689A608023DB058F229200BA18126811
:10294000DA608023DB058C229200BA1812689A6143
:102950008023DB058D229200BA1812685A61802309
:10296000DB058E229200BA1812681A618023DB05FB
:102970008B229200BA1812689A628023DB058B22A0
:102980009200BA181268DA618023DB058A2292006D
:10299000BA181268DA628023DB0589229200BA181D
:1029A00012681A638023DB0588229200BA18126825
:1029B0005A638023DB0587229200BA18126892B20C
:1029C0001A878023DB0586229200BA1812685A649F
:1029D0005B4B85229200BA181268DA60584B842249
:1029E0009200BA181268D2B21A77554B832292001D
:1029F000BA18126892B29A84514A82239B00FB183B
:102A00001B68D9B22823D1544D4A81239B00FB185F
:102A10001B68D9B22C23D154494B80229200BA189A
:102A200012681A63464AFE235B00FB181B68D9B282
:102A30003423D154424BFC225200BA18126892B28D
:102A40001A873F4AFA235B00FB181B68D9B2482358
:102A5000D1543B4AF8235B00FB181B68D9B25023C2
:102A6000D154374AF6235B00FB181B68D9B25423B4
:102A7000D154334AF4235B00FB181B68D9B25823A6
:102A8000D1542F4AF2235B00FB181B68D9B25C2398
:102A9000D1542B4AF0235B00FB181B68D9B260238A
:102AA000D154284BEE225200BA1812681A60254BF6
:102AB000EC225200BA1812685A60224BEA225200E5
:102AC000BA181268D2B21A741E4BE8225200BA1811
:102AD0001268D2B21A751B4AE6235B00FB181B680A
:102AE000D9B22423D154174BE4225200BA181268E9
:102AF00092B21A85134BE2225200BA181268DA62B7
:102B0000104BE0225200BA18126892B21A86034B98
:102B1000FB1800221A70CFE0000010486702000086
:102B200000000410581700205C170020000010401F
:102B300000E100E070FEFFFF20ED00E000009040AB
:102B40000000304000004040CC4BFB181B781B05B8
:102B5000CB4A9446634484225200BA181360C74B90
:102B6000FB181A78C74B9A2189008C46BC446344F1
:102B70009200D25884235B00FB181B681A60BF4B7D
:102B8000FB181A78C04B9A2189008C46BC446344D8
:102B90009200D25884235B00FB181B685A60B74B25
:102BA000FB181A78B94B9A2189008C46BC446344BF
:102BB0009200D3589AB284235B00FB181B689A8357
:102BC000AE4BFB181A78B24B9A2189008C46BC4454
:102BD00063449200D3589AB284235B00FB181B68AD
:102BE0001A84A64BFB181A78AA4B9A2189008C46A6
:102BF000BC4463449200D3589AB284235B00FB1810
:102C00001B689A849D4BFB181A78A34B9A21890064
:102C10008C46BC4463449200D3589AB284235B0030
:102C2000FB181B681A85954BFB181A789B4B9A2149
:102C300089008C46BC4463449200D25884235B00D4
:102C4000FB181B68DA628D4BFB181A78944B9A219B
:102C500089008C46BC4463449200D35899B28423C3
:102C60005B00FB181B684C229952844BFB181A78A6
:102C70008C4B9A2189008C46BC4463449200D25804
:102C800084235B00FB181B681A657C4BFB181A78C1
:102C9000854B9A2189008C46BC4463449200D258EB
:102CA00084235B00FB181B689A65744BFB181A7829
:102CB000724BFB1801321A70704BFB181B78012BFA
:102CC00000D841E7B0231B06DC225200BA18126874
:102CD0001A60764BA6225200BA1812685A60734BDB
:102CE00000229A60714BA8225200BA1812681A602A
:102CF0006F4BDA225200BA1812685A606C4BD82215
:102D00005200BA1812689A60694BD6225200BA185B
:102D1000126892B21A82664BD4225200BA18126814
:102D200092B29A82624BD2225200BA1812689A6109
:102D30005F4BD0225200BA181268D2B21A775C4B9D
:102D4000CC225200BA1812685A63594BCA22520058
:102D5000BA1812689A63564BC8225200BA18126801
:102D6000DA63534BC6225200BA1812681A64504BE9
:102D7000C4225200BA1812685A644D4BC222520043
:102D8000BA1812689A644A4BCE225200BA181268D6
:102D900092B21A86474BC0225200BA18126892B2F9
:102DA0009A80444BBE225200BA18126892B21A811D
:102DB000404BBC225200BA181268D2B21A743D4B72
:102DC000BA225200BA181268D2B21A75394AB82318
:102DD0005B00FB181B689BB240218B439BB21383A3
:102DE000344BB6225200BA181268D2B21A77324B5C
:102DF000B4225200BA18126892B29A802E4BB222B4
:102E00005200BA18126892B21A812B4BB0225200AB
:102E1000BA181268D2B21A74274BAE225200BA18EE
:102E20001268D2B21A75244AAC235B00FB181B68E7
:102E30009BB240218B439BB213831F4BAA225200AB
:102E4000BA181268D2B21A771C4BA4225200BA18D0
:102E500012681A60194BA2225200BA181268D2B234
:102E60001A721649C0231B0198229200BA181268E0
:102E7000CA50024BFB1800221A7071E06702000072
:102E80000000A04068FEFFFF60FEFFFF58FEFFFF4E
:102E900050FEFFFF48FEFFFF40FEFFFF38FEFFFF32
:102EA00030FEFFFF28FEFFFF20FEFFFF10E000E0E6
:102EB0000000F0400000D0400000E0400000704002
:102EC000944BFB181A7813009B009B189B00924AA6
:102ED000944663447A1DFF3213608E4BFB181A78B8
:102EE0008E4B9A2189008C46BC4463449200D25890
:102EF0007B1DFF331B685A60864BFB181A78884B82
:102F00009A2189008C46BC4463449200D2587B1DB0
:102F1000FF331B681A607F4BFB181A78814B9A218C
:102F200089008C46BC4463449200D2587B1DFF3319
:102F30001B689A60774BFB181A787B4B9A218900A3
:102F40008C46BC4463449200D2587B1DFF331B68FF
:102F5000DA60704BFB181A786E4BFB1801321A704E
:102F60006C4BFB181B78072BAAD98123DB059E220B
:102F70005200BA1812685A608123DB059C22520065
:102F8000BA181268D2B21A738123DB059A22520052
:102F9000BA18126892B25A838123DB059822520034
:102FA000BA18126892B21A838123DB059622520066
:102FB000BA1812685A628123DB0594225200BA18AB
:102FC00012689A628123DB0592225200BA181268B5
:102FD00092B21A80C0231B0690225200BA181268BF
:102FE0009A60524B1B7ADBB2002B58D1504B9A227D
:102FF00092009446BC4463441B78002B4FD04D4B49
:103000001B899BB21A0009231340092B06D1802388
:10301000DB05DA6980239B0013403BD1454B1B89BC
:103020009BB21A0011231340112B06D18023DB051C
:10303000DA698023DB0013402CD13E4B1B899BB205
:103040001A0021231340212B06D18023DB05DA69E6
:1030500080231B0113401DD1364B1B899BB21A00E4
:1030600041231340412B06D18023DB05DA698023FD
:103070005B0113400ED12F4B1B899BB21A00812399
:103080001340812B0BD18023DB05DA6980239B0160
:10309000134004D0284A80235B000121D150274BE4
:1030A0009A2292009446BC4463441B78032B07D1B8
:1030B0009023DB059022D205526821490A405A60CC
:1030C000204B97229200BA181268D2B21A721B4B88
:1030D0009A2292009446BC4463441B78032B04D18B
:1030E00001210020FEF77CF903E000210020FEF71B
:1030F00077F997239B00FB181B680122134003D02C
:10310000FEF72CFE00E0C046BD469B239B009D447D
:1031100090BDC04667020000080000A0E0FDFFFF70
:1031200000FEFFFFC0FDFFFFA0FDFFFF000090407D
:103130009EFDFFFF0000104800E100E09FFDFFFF43
:10314000FFFFFFCF0000204090B58BB000AF040020
:1031500008001100FB1D221C1A70BB1D021C1A70F6
:103160007B1D0A1C1A70EFF31083BB61BB697B6285
:1031700072B6464B00221A702323FC180FF070FC25
:10318000030023702223FC18FB1D1B781800FEF798
:10319000D9FD030023702123FC18FB1D1B781800A8
:1031A000FEF7C5FD030023702023FA18FB1D212123
:1031B00079180C781B78D8B2E1B2884200D9231C68
:1031C00013702023FA182023FB18222179180C7879
:1031D0001B78D8B2E1B2884200D9231C1370202397
:1031E000FA182023FB18232179180C781B78D8B201
:1031F000E1B2884200D9231C13702023FB181B78EE
:10320000234A99008A58511C214A9B009950202337
:10321000FB181B78002B06D17B6A7B617B6983F3EB
:10322000108800232EE02023FB181B78012B12D1DD
:10323000184B1B7ADBB2FB61164B00221A7230BFAF
:10324000144BFA69D2B21A727B6A3B613B6983F311
:103250001088002316E0104A7B1D1B7813700E4A5D
:10326000BB1D1B781371BB1D1A782023FB181B781C
:1032700011001800FEF7B8FD7B6AFB60FB6883F362
:10328000108800231800BD460BB090BD0C00002034
:1032900034170020000070400000204080B500AFCF
:1032A000C046BD4680BD80B500AFFEE780B500AF2B
:1032B000C046BD4680BD80B500AFC046BD4680BD9E
:1032C00080B500AFFEF7C8FAC046BD4680BD80B5E8
:1032D00000AF05F065F9C046BD4680BD80B500AFC2
:1032E000BFF34F8F024B034ADA60BFF34F8FFEE705
:1032F00000ED00E00400FA0580B500AF0D4B1800AA
:1033000000F038FB0C4B180000F034FB0B4B18009E
:1033100000F030FB0A4B180000F02CFB094B1800A2
:1033200000F028FB084B180000F0AAFAC046BD4682
:1033300080BDC046FC2F0510003005104030051040
:10334000803005109C300510BC30051090B58FB052
:1033500004AF2023FB18404A1168196092889A80B4
:103360003B1D3E4A13CA13C303CA03C32723FC18D9
:103370002023FB181A000621002001F057FB030050
:1033800023702723FB181B78002B07D02723FB185B
:103390001A78334B1100180000F072FA0421012052
:1033A00001F040FB2723FC1801F027FB03002370EA
:1033B0002723FB181B78002B07D02723FB181A782C
:1033C000284B1100180000F05BFA2723FC181E237D
:1033D000FA181A23FB1801931C23FB1800931300FF
:1033E00014220021012001F0CBFA030023702723CF
:1033F000FB181B78002B07D02723FB181A781A4BD1
:103400001100180000F03CFA1E23FB1819881C2339
:10341000FB181A882723FC183B1D039314230293DF
:1034200000230193142300930023002001F0E9FA04
:10343000030023702723FB181B78002B07D02723BA
:10344000FB181A78094B1100180000F019FAC04651
:10345000BD460BB090BDC0466C31051074310510EF
:10346000C4300510F430051018310510383105103E
:10347000B0B590B008AF0200BB1D1A800823FB183E
:10348000304A13CA13C303CA03C312781A70BB1D90
:103490001A88FA239B009A4204D12B4B180000F0A3
:1034A000EFF903E0294B180000F0EAF900210020B1
:1034B00004F0B1FABB1D1B88FA2292005343244941
:1034C0001800FCF7D5FE03009DB2BB1D1B88FA2235
:1034D000920053431E491800FCF7CAFE03009AB23B
:1034E0001F23FC1800230693002305930023049355
:1034F000002303930823FB18029315230193002351
:10350000009300232900002001F052FA03002370E9
:103510001F23FB181B78002B08D01F23FB181A78D9
:103520000C4B1100180000F0ABF906E00A4B012229
:103530001A700A4B180000F01DFAC046BD4608B0CC
:10354000B0BDC0460832051088310510B4310510F1
:1035500071020000E0310510AC170020F8310510B1
:1035600090B583B000AFFEF75FF8FEF72BFB5E4B24
:103570001800FEF78FF9C0231B0300211800FDF788
:1035800025F9FC1D594B180001F096FA0300237031
:10359000FB1D1B78002B07D0FB1D1A78544B110024
:1035A000180000F06DF9FEE7FFF7D0FE514B180050
:1035B00000F0E0F9504B180000F0DCF94F4B00220E
:1035C0001A7001F037FABB1D1800FEF7BAFA031E95
:1035D0003DD0BB1D1B783F2B2DD004DC0A2B35D0F2
:1035E0000D2B33D02DE0722B28D0732B11D0662BEE
:1035F00027D1424B1B78002B06D16420FFF738FF00
:103600003E4B01221A7022E03D4B180000F0B2F947
:103610001DE03A4B1B78002B08D1FA239B001800C1
:10362000FFF726FF354B01221A7010E0344B1800CB
:1036300000F0A0F90BE0FFF75FFE08E0FFF74EFE99
:1036400005E0304B180000F095F900E0C0462B4B28
:103650001B78022B11D0042B02D0002B42D021E08A
:10366000E1235B021800FEF759F8274B180000F021
:1036700081F9224B00221A7035E0E1235B02180029
:10368000FEF74CF8214B180000F074F9204B1B8812
:103690001A00204B1100180000F0F2F8174B03221B
:1036A0001A7020E00020FDF787F900210820FDF7BF
:1036B0008DF800210120FDF789F8FC1D0022002172
:1036C0000320FFF741FD03002370FB1D1B78002B37
:1036D00000D176E7FB1D1A780F4B1100180000F09F
:1036E000CFF8FEE7C0466CE7C1190410803305101F
:1036F000203205105832051070320510AC1700202A
:1037000090320510E0320510F43205100C3305102C
:10371000AE170020203305105033051080B582B05D
:1037200000AF0200FB1D1A70FFF7D8FDC046BD4672
:1037300002B080BD80B584B000AF3A60FB1D021CB2
:103740001A70BB1D0A1C1A70FB1D1B78032B13D8A3
:103750003B681B781AB23B6801331B781B021BB213
:1037600013431AB20E23FB181A800E23FB181B8872
:103770001321180001F03DF9C046BD4604B080BDDC
:10378000B0B582B000AF05000C0010001900FB1DA1
:103790002A1C1A703B1D221C1A80BB1D021C1A70A9
:1037A000FB1C0A1C1A70FB1D1B78002B07D1064B53
:1037B00002221A70054B1C22BA1812881A80C046C1
:1037C000BD4602B0B0BDC046AC170020AE17002009
:1037D00090B583B000AF040008001100FB1D221C4F
:1037E0001A703B1D021C1A80BB1D0A1C1A70034B69
:1037F00004221A70C046BD4603B090BDAC1700202D
:1038000080B582B000AF0200FB1D1A70C046BD46F5
:1038100002B080BD10B500F019F810BD30B500241D
:10382000A24201D1002005E0035D651C0C5DA342AE
:1038300001D0181B30BD2C00F2E7002310B59A42CE
:1038400000D110BDCC5CC4540133F8E710B58842F8
:1038500002D98B18984208D300239A4207D0CC5C37
:10386000C4540133F9E78B5C8354013AFBD210BD99
:1038700003008218934200D1704719700133F9E7B1
:103880000FB40B4B13B51C68002C05D0A369002B9B
:1038900002D1200000F0E8FA05AB049AA1682000EC
:1038A000019300F0BDFC16BC08BC04B01847C0462C
:1038B0000418002070B505000E00002804D08369AC
:1038C000002B01D100F0D0FAAB69AC68002B02D11B
:1038D000280000F0C9FA244B9C420FD16C68A389E0
:1038E0001B0702D52369002B20D12100280000F0FE
:1038F0004DF900281AD00120404270BD1B4B9C425C
:1039000001D1AC68EBE71A4B9C42E8D1EC68E6E7E2
:10391000013B0136A360002B04DAA269934216DB57
:103920000A2914D023685A1C226019703178A368C0
:103930000029EDD1013BA360002B0FDA22000A31F0
:10394000280000F0CDF8431CD5D00A20D5E722008E
:10395000280000F0C5F8431CE8D1CCE70A20236812
:103960005A1C22601870C8E7D8330510F8330510C8
:10397000B833051010B5034B01001868FFF79AFF24
:1039800010BDC04604180020F0B51D004F4B85B097
:103990001E6804000F000092002E05D0B369002BB2
:1039A00002D1300000F060FA494B9C4250D174685B
:1039B000009B022B05D0012B00D984E0002D00DAFA
:1039C00081E02100300000F0E1F9616B002908D0AE
:1039D00023004433994202D0300000F051FB002311
:1039E00063630023A3616360A3891B0603D5216978
:1039F000300000F045FBA389364A1340A381009BA9
:103A0000022B5AD003AB02AA2100300000F0C2FA08
:103A1000A3891843A081002D24D1029D280000F025
:103A200025FB0195071E42D1029B0193AB4239D180
:103A3000012040420223A2891343A3810023A360F3
:103A400023004733236023610123636105B0F0BD88
:103A5000214B9C4201D1B468AAE7204B9C42A7D1DC
:103A6000F468A5E7002FD9D0B369002B02D130004C
:103A700000F0FAF9009B012B03D1A389009A1A43A5
:103A8000A2810820A389276027616561184018D0AA
:103A9000012018400023984211D06D42A360A56117
:103AA0001800D3E7019800F0E1FA071EC0D0802388
:103AB000A289019D1343A381D6E70020BAE7A56040
:103AC000C4E7A060C2E701204042BFE7041800201D
:103AD000D83305105CF3FFFFF8330510B833051039
:103AE000F8B505000E001400002804D08369002BEF
:103AF00001D100F0B9F9224B9C422DD16C68A36929
:103B0000A360A3891B0731D52369002B2ED023681E
:103B10002269F7B2981A6369F6B2984205DB210070
:103B2000280000F033F9002826D1A3680130013BBA
:103B3000A36023685A1C22601F706369984204D0F6
:103B4000A389DB071AD50A2E18D12100280000F01E
:103B50001DF9002812D00FE00A4B9C4201D1AC683D
:103B6000CDE7094B9C42CAD1EC68C8E72100280088
:103B700000F00CF80028CAD0012676423000F8BDCB
:103B8000D8330510F8330510B8330510364B70B52F
:103B90001D6806000C00002D05D0AB69002B02D17A
:103BA000280000F061F9314B9C420FD16C680C2366
:103BB000E25E93B219072DD4D90611D4092301204E
:103BC000336037331343A381404270BD284B9C427E
:103BD00001D1AC68EBE7274B9C42E8D1EC68E6E703
:103BE0005B0713D5616B002908D023004433994249
:103BF00002D0300000F044FA002363632422A3893A
:103C00009343A38100236360236923600823A2896F
:103C10001343A3812369002B0BD1A0218022A38908
:103C2000890092000B40934203D02100300000F045
:103C3000D9F90123A289134011D00023A36063693D
:103C40005B42A361002023698342BED10C23E25E64
:103C50001306BAD540231343A3810138B5E7920771
:103C600000D46369A360EDE704180020D833051081
:103C7000F8330510B8330510F7B58A8905000C0034
:103C8000130760D44B68002B04DC0B6C002B01DCA9
:103C90000020FEBDE76A002FFAD000232E682B60BB
:103CA00080235B011A4034D0606DA3895B0706D581
:103CB0006368C01A636B002B01D0236CC01A02002A
:103CC000216A00232800E76AB847A189431C06D16E
:103CD0002B681D2B31D82C4ADA40D3072DD5002371
:103CE000636023692360CB0405D5431C02D12B6894
:103CF000002B00D16065616B2E600029C8D02300C5
:103D00004433994202D0280000F0BAF900206063E1
:103D1000BFE70123216A2800B847431CC5D12B689F
:103D2000002BC2D01D2B01D0162B01D12E60AFE786
:103D30004023A2891343A381ABE740230B43012017
:103D4000A3814042A5E70F69002FA1D00B680F6047
:103D5000DB1B01930023920700D14B69A360019BF9
:103D6000002B00DC94E7019B3A00216A2800A66A38
:103D7000B047002803DC4023A2891343DFE7019BFF
:103D80003F181B1A0193EAE7010040200B6970B548
:103D900005000C00002B01D1002070BD002804D0CC
:103DA0008369002B01D100F05FF80B4B9C4209D1D5
:103DB0006C680C22A35E002BEED021002800FFF7D8
:103DC0005BFFEAE7054B9C4201D1AC68F1E7044B8D
:103DD0009C42EED1EC68ECE7D8330510F8330510BF
:103DE000B833051010B5024900F0B2F810BDC04656
:103DF0008D3D0410002310B5040003604360836010
:103E000081814366C2810361436183611900082295
:103E10005C30FFF72DFD054B24626362044BA36207
:103E2000044BE362044B236310BDC0468D4704106E
:103E3000B5470410ED4704101948041070B5682503
:103E40004A1E55430E002900743100F063F9041E28
:103E500008D000212A00016046600C30A060683262
:103E6000FFF706FD200070BD836913B50400002B29
:103E700028D18364C3640365134B144A1B688262B0
:103E80000193984201D101238361200000F020F8C2
:103E90006060200000F01CF8A060200000F018F81E
:103EA0000022E06004216068FFF7A4FF01220921DD
:103EB000A068FFF79FFF02221221E068FFF79AFF38
:103EC0000123A36113BDC046B4330510E53D0410C2
:103ED000F8B51E4B07001E68B369002B02D13000F5
:103EE000FFF7C2FF4836B4687368013B04D53368F6
:103EF000002B07D03668F6E70C22A55E002D0DD00A
:103F00006834F2E704213800FFF798FF306000289A
:103F1000F0D10C2304003B602000F8BD01232000F9
:103F20005B42E3810233A38165662560A56065601D
:103F300025616561A561082229005C30FFF798FCC6
:103F40006563A563A564E564E6E7C046B433051080
:103F5000F7B504000700002601914834002C01D178
:103F60003000FEBD6368A5680093009B013B009391
:103F700001D52468F2E7AB89012B08D90E22AB5E8C
:103F8000013304D029003800019B98470643683567
:103F9000EBE7000070B50E001D000E23C95E90B067
:103FA0001400002907DA00232B60B3891B0611D403
:103FB0008023DB000FE001AA00F05AFC0028F2DBAE
:103FC000F022029B12021340054A9B185A425341A9
:103FD0002B60EDE740230020236010B070BDC04689
:103FE00000E0FFFFF7B502268B8905000C00334285
:103FF00006D0230047332360236101236361F7BDAB
:1040000001AB6A46FFF7C6FF00990700280000F0E1
:1040100081F8002808D10C22A35E9A05EFD4032270
:1040200093431E43A681E4E70F4BAB628023A28932
:1040300020601343A381009B20616361019B002BDF
:104040000DD00E23E15E280000F024FC002806D0ED
:104050000322A38993431A0001231343A381A08958
:104060003843A081CBE7C046E53D041010B5034BB3
:104070000100186800F04EF810BDC046041800207A
:1040800070B50500002910D00C1F2368002B00DA42
:10409000E418280000F02FFC1D4A1368002B05D1FE
:1040A00063601460280000F027FC70BDA34209D9AA
:1040B000216860188342F3D118685B684118216059
:1040C000EEE713005A68002A01D0A242F9D9196814
:1040D0005818A0420BD1206809185818196082425C
:1040E000E0D110685268411819605A60DAE7A042BE
:1040F00002D90C232B60D5E721686018824203D1D6
:10410000106852684118216062605C60CAE7C0466E
:1041100044170020032370B5CD1C9D4308350600CD
:104120000C2D1ED20C25A9421DD8300000F0E3FB57
:10413000254A14682100002919D1244C2368002B3A
:1041400003D1300000F010FB20602900300000F0A7
:104150000BFB431C2CD10C233000336000F0CCFB54
:1041600003E0002DDFDA0C233360002070BD0B6804
:104170005B1B1AD40B2B03D90B60CC18256003E012
:104180008C420ED163681360300000F0B5FB200054
:1041900007220B30231D9043C31AE7D05A42E25046
:1041A000E4E74B6863600C00EEE70C004968C2E787
:1041B0000323C41C9C43A042E0D0211A300000F02D
:1041C000D3FA431CDAD1C6E7441700204817002071
:1041D000936810B5013B9360002B05DA9469A34204
:1041E00008DBCBB20A2B05D01368581C106019707D
:1041F000C8B210BDFFF774FCFBE7F8B506000F006E
:104200001400D518AC4201D1002007E021783A0013
:104210003000FFF7DDFF0134431CF3D1F8BD00008F
:10422000F0B59FB006000F0014000593002804D0DD
:104230008369002B01D1FFF717FE7F4B9F425CD1B2
:104240007768BB891B0762D53B69002B5FD00023D1
:1042500006AD6B6120336B761033AB760294029C13
:104260002378002B5DD1029BE31A04930DD0049BAD
:10427000029A39003000FFF7C0FF431C00D1CCE0A8
:104280006A69049B944663446B612378002B00D1D8
:10429000C3E00122002352426A6002A9543252183C
:1042A00001342B60EB60AB601370AB6521780522A5
:1042B000624800F015FB631C9C46002835D1296834
:1042C000CB0604D5532302AA20309B1818700B0785
:1042D00004D553232B2002AA9B18187023782A2B6D
:1042E0002CD000200A21099B2278303A092A00D8D4
:1042F0006BE000282AD0099328E0514B9F4201D15E
:10430000B7689EE74F4B9F429BD1F76899E739000A
:104310003000FFF73BFC002899D0012040421FB03D
:10432000F0BD252B9FD001349AE7444B2968C01A71
:10433000012383400B432B606446B7E7059B181DA0
:104340001B680590002B3ADB0993644623782E2BDB
:104350000BD16378621C2A2B3FD1059B02341A1DB6
:104360001B680592002B35DB079321780322364822
:1043700000F0B6FA002807D0334B2A68C01A402351
:10438000834013432B6001342178631C06222F489D
:104390000293297600F0A4FA002844D02C4B002B7D
:1043A0002FD12968059B0722C90528D59B1893435F
:1043B000083305936B69039A9B186B614FE75B4267
:1043C000EB6002230B432B60BFE74B4301349B1888
:1043D000012089E701235B42C6E7002314000A207D
:1043E0001A006B6021783039092903D9002BBCD021
:1043F0000792BAE74243013452180123F2E7073328
:10440000D5E705AB00933A00124B2900300000E0DD
:1044100000BF0390039B0133CCD1BB895B0600D561
:104420007BE70B987BE705AB00933A00094B29002B
:10443000300000F07FF8ECE7D83305101834051091
:10444000F8330510B83305101E340510223405105A
:1044500000000000FB410410F7B5150001938A68C5
:104460000B6900900C00934200DA130022002B60CD
:1044700043321278002A01D001332B6023689B0657
:1044800002D52B6802332B60062723681F4027D0F4
:10449000230043331B785A1E93412268920630D47E
:1044A0002200019943320098089EB047431C25D052
:1044B000062320682A68E16803400025042B03D105
:1044C0008D1AEB43DB171D40A3682269934201DD7F
:1044D0009B1AED180027BD4220D1002010E00137C3
:1044E000E3682A689B1A9F42D2DA2200012319321C
:1044F00001990098089EB047431CF0D1012040422A
:10450000FEBD3020E1184331087021005A1C4531AE
:104510000978A218433202331170C1E72200012347
:104520001A3201990098089EB047431CE6D0013723
:10453000D1E70000F0B58BB006920A004332079332
:10454000059004920A7E0C00109B6E2A00D18FE029
:1045500017D8632A2CD008D8002A00D199E0582A0D
:1045600054D026004236327029E0642A01D0692AEC
:10457000F7D121681A68080623D5111D196015683E
:1045800025E0732A00D188E008D86F2A29D0702A44
:10459000E7D1202209680A43226003E0752A20D06F
:1045A000782ADED122007821453211706C4A30E041
:1045B0000E001A684236111D19601368337001230A
:1045C00079E04906D9D5111D19600023D55E002D6B
:1045D00003DA2D23049A6D421370624B0A2703936A
:1045E0002FE020681968050603D5081D18600D68BE
:1045F00005E04006F9D50D68081D1860ADB2594BAD
:10460000082703936F2A18D00A2716E045310A704D
:10461000544A03921A682168101D1860156808062C
:1046200022D5CB0702D52023194321601027002D66
:1046300003D1202322689A432260230000224333BF
:104640001A706368A360002B5CDB0422216891432D
:104650002160002D58D1049E002B64D02600039BBE
:1046600042361B7833705EE04806DAD5ADB2D8E743
:1046700009681A68080605D5111D19601368626972
:104680001A6006E04906F7D5111D19601368A28A61
:104690001A800023049E236154E01A68111D1960DA
:1046A000166800216268300000F01AF9002801D075
:1046B000801B6060636823610023049A137041E0EB
:1046C0002369320006990598079DA847431C43D0EB
:1046D000236800259B070FD4099BE06898423DDAC8
:1046E00018003BE022000123193206990598079E25
:1046F000B047431C30D00135E368099A9B1A9D42AC
:10470000F0DBE9E7002DA9D0049E28003900FBF773
:10471000ABFD039B013E5B5C280033703900FBF767
:104720001DFD051EF1D1082F09D12368DB0706D531
:1047300063682269934202DC3023013E3370049B9C
:104740009B1B2361079B09AA00932100069B0598E8
:10475000FFF782FE431CB3D1012040420BB0F0BDF5
:104760003A34051029340510002370B5064C0500B5
:1047700008002360FDF74CF9431C03D12368002B8C
:1047800000D02B6070BDC046B017002070B50C0083
:104790000E25495F00F0B2F8002803DB636D1B189B
:1047A000636570BDA389024A1340A381F9E7C0463F
:1047B000FFEFFFFFF8B51F008B8905000C00160006
:1047C000DB0505D50E23C95E0022022300F074F834
:1047D000A389054A28001340A38132000E23E15E1D
:1047E0003B0000F01FF8F8BDFFEFFFFF70B50C00B5
:1047F0000E25495F00F060F8A389421C03D1054AE9
:104800001340A38170BD802252011343A3816065D0
:10481000F8E7C046FFEFFFFF10B50E23C95E00F0BA
:1048200015F810BD70B50500080011000022064CF7
:1048300022601A00FDF746F9431C03D12368002BC0
:1048400000D02B6070BDC046B0170020002370B5AB
:10485000064C050008002360FDF708F9431C03D14E
:104860002368002B00D02B6070BDC046B01700201D
:10487000002370B5064C0500080011002360FDF709
:10488000FFF8431C03D12368002B00D02B6070BDC0
:10489000B0170020002370B5064C05000800236007
:1048A000FDF7FCF8431C03D12368002B00D02B60DC
:1048B00070BDC046B017002070B50500080011009B
:1048C0000022064C22601A00FDF7F1F8431C03D1C8
:1048D0002368002B00D02B6070BDC046B0170020AD
:1048E000C9B28218904201D10020704703788B42F0
:1048F000FBD00130F6E770477047000070B5050047
:10490000080011000022064C22601A00FDF7F6F89C
:10491000431C03D12368002B00D02B6070BDC04620
:10492000B0170020F0B5054600200F46079E059CF5
:10493000174309D0202905D30127BF03BA4201D864
:10494000914201D94220F0BD194621430AD09C4230
:10495000F8D309498C4203D00849A41F8C42F1D2F4
:10496000062BEFD3002D03D0022D01D0032DE9D16A
:10497000032EE7D8F0BD0000FFFF00007B0C000015
:104980007CB5069D079C002805D0860705D1460703
:1049900003D4060701D442207CBD002903D001299D
:1049A00001D00229F7D10095019400F073FA7CBD83
:1049B000FFB587B0109D159E169C0193029500943B
:1049C00007A807C81F463346FFF7ACFF00280ED1E3
:1049D0001398149903AA069443C21198129901904E
:1049E0000095029107A807C83B4600F0C5FB0BB035
:1049F000F0BD10B507F020F910BD10B501F0F8FDBD
:104A000010BDF0B585B084460AA8F0C86846858117
:104A1000C68103A8019002970094604602F0D2F884
:104A200005B0F0BD10B502F01BFE10BD10B502F0D0
:104A300039FE10BD70B503F0F7F81D4C0125206854
:104A4000ED0241190979002909D1A0300079C00788
:104A500027D002F097FF02F043FF0BF0DDF900F0E2
:104A6000FFF82068014640310A78C9798A4317D196
:104A70003E21095C002913D10E490A8812070FD57F
:104A80000922D2061269497A836A4019006FC90067
:104A9000801A000259180012814201DA08F08CFBDA
:104AA00070BD00F049FB01F03BFC09F0CFFAD2E702
:104AB000FC170020C000002010B5837F01220024D5
:104AC00092024168082B03D94224914202D310E09C
:104AD000914201D242240CE0014634220648FDF7FF
:104AE000F3F800F07FF8002801DA482401E000F034
:104AF00027F9204610BD0000CC0200203EB5174D1E
:104B000015482968827F0846A0310A730024603066
:104B1000047644768476E122C276802202770222ED
:104B20004277302008704C7002AA01A96846FDF750
:104B3000ADF868460078A22201016846007A891C17
:104B400000020143684600790003014328681152BE
:104B5000A03004713EBD0000CC020020FC170020F4
:104B600070B503F047F807F07DFE06F087FD0BF007
:104B70006BFF03F023FA184C18492068184D4018B1
:104B8000811009202A6800021018416761688908AD
:104B90008167A1688908C1670AF060FA0F20296857
:104BA000C001228B08188281628BC281A28BC280D5
:104BB000628C028122462032127882723B2252019C
:104BC00000208918087500F063FA02F097FE02F0E1
:104BD0001FFE0BF0A7F970BDCC0200200000FCEF17
:104BE000FC17002070B50025ED4302F0C8FE012837
:104BF0002FD0002318490322888BFF24401E104326
:104C00008A7F513462438218088B2824604312182B
:104C1000488B3024604312180846203040782C24FA
:104C2000604310180D4A181884184869A0420ED124
:104C30001320C00184420AD90D6902F0A0FEC1B25E
:104C4000284605F09DFA05F0CDFB401B251A2846A5
:104C500070BDFF23B533CDE7CC0200205119000011
:104C6000F8B52C4F3C68206E5C34401C002814D0F2
:104C7000002529480023C07B00283ED00926F606DF
:104C80002648002D1CD000210A460B464169521CC3
:104C9000994204D1002902D004E00125E9E7204B24
:104CA0009A42F2D32160006960603069A168000215
:104CB000090E000A09060143A16000F033F81DE067
:104CC0003169A2680902090A150E08D0018BC907CB
:104CD00012D04169216000696060E37210E0881AB7
:104CE00000027D2300121B03984205DD100E000612
:104CF0000843A06000F016F8F8BD6360002DFBD0FB
:104D000003CC08F08BF9FA2008F078F9396888624A
:104D1000F8BD0000FC170020EC0200200000104845
:104D2000881300000449002008610448012100683C
:104D30006030C1717047000000001048FC1700206F
:104D4000F8B506263248402505603248002707801E
:104D5000A9050920C00641602F4A916001680160E1
:104D60002E48032104694269601E08433946401CED
:104D7000FCF7BBFF02F003FEC1B2204605F000FACB
:104D800005F030FB05F03AFB04F0BCFB244917208A
:104D90008881244C2068421901465770FA208862A5
:104DA0002820107002F0E9FD012805D120681022AA
:104DB00040300178114301700BF014F8012805D13F
:104DC000206880224030017811430170206801463C
:104DD00040300278324302700020C0430866FBF77F
:104DE000E4FCFFF78BFEFFF7BBFE206801212030BB
:104DF000017707214177012002F032FC04F0E6FB45
:104E0000FFF72EFF02488038056002210160F8BDDF
:104E100080E100E0C000002040000048CC020020FB
:104E200000001048FC17002038B5184A14682246C4
:104E3000BA32AE34A378DD0701D001290AD05B076E
:104E40000CD501290AD0217949070BD5E17A00292F
:104E500005D007E0E07880210843E07038BD0121EB
:104E6000E172508020794106090FF7D0782108407F
:104E700069460870002048706A460221422000F00E
:104E8000BDFA207987210840207138BDFC17002029
:104E900070470000FFB50C4678A103C995B0019199
:104EA0000090002108A801730321C90268464186C9
:104EB000012108A8734E017435681746AE350DF010
:104EC00055FE002808D170493068401806F0C0FE31
:104ED000A878002802D0462019B0F0BD0BA815997B
:104EE00000F066F90028F7D1072010A90871012CFD
:104EF00005D0022C0AD0002C0ED04220ECE708A8E6
:104F0000017B1020014308A8017305E011A90BA83B
:104F100000F05DF90028DFD110A8027901230CA967
:104F2000284601F0DDF800287ED102222946189893
:104F3000FCF7CAFE29886846818115214902018251
:104F40000784012686734E2108A881700024C4704E
:104F5000067107214171867103A902A800F076FE4F
:104F6000002861D1022202A91E98FCF7ADFE082F8D
:104F700002D26846478502E00820694648856946AE
:104F80000C850B4628880AAA098901F0E7FD00284C
:104F90006DD13E49684601820227078408A88471C2
:104FA00003A902A800F052FE002860D1022202A943
:104FB0001F98FCF789FE68460470694644704F8567
:104FC0000B4628880AAA098901F0C8FD00284ED19D
:104FD00008A8007BC00723D02C496846C91C018261
:104FE0000821018408A88770047103A902A800F0B1
:104FF0002DFE00283BD1FF216846C1718171C1702F
:1050000081704170017044710471694608204885BF
:105010000B4628880AAA098901F0A0FD002826D19C
:1050200008A8007B800600E021E022D52988684698
:1050300081811649A53101820684867308A887708C
:10504000C470047107214171847103A902A800F0A2
:10505000FDFD00280BD169460E700C854E850B4670
:1050600028880AAA098901F079FD002801D0472083
:1050700032E708A8007BA87000202DE7626C7565F8
:105080006E726721FC170020EF060000012A000065
:10509000034800210068AE30C17081707047000085
:1050A000FC17002038B50246174801240068AE30CE
:1050B000022A1FD0052A03D0072A07D00B2A20D1A5
:1050C000084609794088FFF7AFFE1AE0007900240E
:1050D000020600D50124820703D1C20601D480064E
:1050E0000FD5084600216A461170694600F072F833
:1050F000044606E08178490703D50179FB22114077
:105100000171204638BD0000FC17002010B5094889
:105110000468AE34E07880070BD5002007F03EFA33
:10512000022000F043F9E07801210843FD21084006
:10513000E07010BDFC1700201FB50E480468AE34A7
:10514000E078010612D5A178C9070CD0800708D5F0
:10515000042069460873684602F040FE022000F011
:1051600025F90020E0704006400EE07000F02EF8B7
:105170001FBD0000FC170020F0B58DB00C4616A92D
:10518000E0C90021089109910A910B9115990491A8
:1051900005A9E0C112A962C9009301911346014615
:1051A000039602952246012000F046F80DB0F0BDAE
:1051B0000A07920F01D0422070478A07FBD002787D
:1051C0008907890F0A430270002070477047422008
:1051D0007047000030B5174B047A1B68C268AE33C5
:1051E0001B799D06AD0F04D10078042801D0002062
:1051F0000BE0012030BD401C80B2155C012D08D0B1
:105200001518203DED7F281880B2A042F3D308780E
:1052100030BD401CDD07012480B2002D02D0105C9F
:10522000C00703E09B07F2D5105C80070028EED092
:105230000C70ECE7FC170020FFB595B00E46054654
:1052400020210CA8FCF7AEFC002004905648002753
:105250000468681EAE34042802D8A078C0070BD0BA
:10526000062D02D0002D0AD002E0A078800703D5D9
:10527000E0784006800E0AD0462019B0F0BDA07834
:105280008007F9D0E0784006800EF5D00FE0002DC1
:105290000DD0012D20D0022D28D0062D33D0032D86
:1052A00033D0042D37D0002E3BD04220E5E700203C
:1052B00007F074F90028E0D1E078800708D50420D1
:1052C00069460873684602F089FD022000F06EF816
:1052D0000120E0700020D0E7012EE6D0042EE4D0BB
:1052E0001F980028E1D10627042008E0012EDCD019
:1052F000042EDAD01F980028D7D105270220E070AD
:105300000120049010E040200DE0022E01D0032E79
:10531000CBD1082007E0012E01D0042EC5D11020EA
:1053200001E004272020E07000230BAA19461E98F4
:1053300006F0E8FA030002D000F0DEF832E01022B6
:10534000002107A8FCF7D1FC07A86C46279B269AEA
:105350001F990FC42B463046189A179900F088F809
:105360000300E9D108A8017BC170259803AC049B18
:10537000289A29990FC422AB07CB02920091019081
:1053800039460CA8209B219A00F0C0F80300D3D125
:1053900007A807F0F7FB0300CED1012007F0FEF8C5
:1053A0000300C9D1184668E7FC17002010B5044671
:1053B000C1061148006803D51522BF210C4006E044
:1053C000372149014118897AC90710D012222107D3
:1053D000890E08180121C90240184069002321469E
:1053E0000AF0E6FD010004D020460AF0CDFD0020C1
:1053F00010BD072010BD0000FC170020F8B5891E65
:10540000CDB20646A81C03210843401C8308174858
:1054100017460068F10603D51C22BF210E4008E0A4
:10542000372149014118897A090601D40020F8BDC5
:1054300019223107890E08180121C9024018406954
:1054400031460AF0B5FD04000ED039782171797823
:105450006171A5712A46B91CE01DFCF735FC214697
:1054600030460AF091FDE1E70720F8BDFC17002067
:10547000F8B5204B41251B686D015B190126069C80
:10548000B6030093002814D0042812D0022813D0A9
:10549000032811D006252B46012810D00F461743AC
:1054A0000DD0914203D8202901D3B2420AD942201B
:1054B000F8BD30256023EFE7A025F023ECE7258039
:1054C000638001E02180628020710798A0710898B4
:1054D00020720998002805D001462046062209308E
:1054E000FCF7F2FB0720607100982030807B607130
:1054F0000020F8BDFC170020034881220068A0307E
:10550000417C114041747047FC170020F8B50546F6
:105510003E481E460068079F0024AE30134600290F
:1055200005D002222A7001226A70A9700324002E7D
:1055300010D080788006800F0CD13019401C1F28B5
:1055400054D82E55641C281932461946FCF7BCFB6A
:10555000A019C4B2002F0DD03819401C1F2845D8FF
:105560002F55641CE4B228193A460699FCF7ACFBA7
:10557000E019C4B26846008C00281BD06846808CB5
:10558000002817D0601D1F2830D805202855641C1E
:10559000E0B212212954401CC4B228190646022246
:1055A00008A9FCF791FBB01C022209A9FCF78CFBAF
:1055B000241DE4B20C98002812D0E01C1F2815D836
:1055C00002202855641CE0B20A212954401CC4B2B0
:1055D000684607F0D9FC684600782855641CE4B298
:1055E0000B9800280CD000191F2801D94220F8BDC3
:1055F00028190B9A0A99FCF767FB0B982018C4B27C
:105600002146284607F01CFAF8BD0000FC170020D0
:1056100010B50D4900050B680921090259184A6B9C
:105620000021000DA0331B7B0AE04C01145B240514
:10563000240D844202D14801801810BD491CC9B212
:105640008B42F2D8002010BDFC170020F8B5069C54
:105650001F4615460646002C13D0A06802220D30C6
:10566000FCF732FBE81E82B23B460721204606F0DB
:1056700093F8E580A068012E05D01D21017300205C
:10568000F8BD4720F8BD1B21F8E70000F1B5FFB0D9
:1056900001248BB0600205900027CC480797016871
:1056A000CB48C94D081803908A980AAA0005000D36
:1056B00005A908F043FA0690002872D104260AA82A
:1056C00005994218203AD27F0B2A23D000260020C9
:1056D00004900AA88119022201A80291FCF7F4FAA9
:1056E0006846818809AB08AA039801F033FC0128B9
:1056F00017D002287ED068468088854200D30546B0
:10570000844200D92046044602988078012872D04D
:1057100013363CE1491E761E36040591360CCFD176
:10572000D5E708980090002F66D100990222283111
:105730000298FCF7EBFA00281ED100982030017B7C
:1057400002988078814217D1012808D100980299E7
:1057500002220830C91CFCF7D9FA002815D002989B
:105760008078022808D10098029910220830C91CBC
:10577000FCF7CCFA002808D00098008DA84200D889
:105780000546A04200D22046044602990AA889781C
:10579000012907D013360599B6B28E4204D30127EA
:1057A00007E006E1761DF6E78119022201A8FCF761
:1057B0008BFA0399009808318E462FE0844669469B
:1057C000026A8B8820300DE0918B994203D3012F20
:1057D0007ED199427CD9A94200D80D46A14200D37E
:1057E0000C4612688242EFD10498002804D160462A
:1057F000006802E015E0BFE08AE070450ED0018D40
:10580000994203D3012F09D1994207D98D4200D380
:105810000D468C4200D80C46012F59D17045CDD190
:10582000BAE008980090002F72D1009902221C3132
:105830000298FCF76BFA00281ED100982030C1783E
:1058400002988078814217D1012808D100980299E6
:1058500002220830C91CFCF759FA00281AD0029815
:105860008078022808D10098029910220830C91CBB
:10587000FCF74CFA00280DD00098808BA84200D885
:105880000546A04200D220460446029880780128AE
:1058900026D003E002988078012805D013360798B7
:1058A000B6B201281ED021E000984A4900898842FA
:1058B00016D18A98FFF7ACFE0146009800F08CF8EC
:1058C0000099098C4843009989694018022200E038
:1058D00038E00299491DFCF7F7F901200790D4E759
:1058E000761DDCE7B61C0020B6B20790059886420C
:1058F00001D3012705E00AA88119022201A8FCF7BB
:10590000E3F9039A0099083209980968944630E04F
:105910001AE086466A46938820300DE08A8B9A42C8
:1059200003D3012F0ED19A420CD9AA4200D81546B2
:10593000A24200D3144609688142EFD1049800289E
:105940002AD102E00120049026E0704600686045FC
:105950000FD0028D016A9A4203D3012F09D19A42D6
:1059600007D9954200D31546944200D81446012F1A
:10597000E8D16045CDD10FE00298C078022805D16A
:1059800002980079292801D1B61CB6B2761D059877
:10599000B6B2864200D301270598811B042902D3A1
:1059A000864200D293E604980028FBD1A54203D991
:1059B00006987FB00CB0F0BD224629468A9801F0C7
:1059C0000FFB0690F5E70000FFFF0000FC1700202A
:1059D0002C0700000229000030B5024623239B5CFF
:1059E0000020012B1AD112890D4B9A4216D10D4A73
:1059F000092312681B02D318A0325B6B127B0AE0EA
:105A000045010C885D5B24052D05240D2D0DAC4250
:105A100004D0401CC0B28242F2D8002030BD000049
:105A200002290000FC170020064909220968120219
:105A300089188008496B400108180188002900D1A5
:105A400000207047FC17002010B50446022000F02B
:105A500033F80D4800210268092000021018A03216
:105A6000436B107B05E04A019A5A002A04D0491C76
:105A7000C9B28842F7D810BD48011C52C01802694B
:105A800004210A43026110BDFC17002010B5044632
:105A90000146042002F0C8FB002808D0044805494C
:105AA0000068401821463C300BF0EAF8432010BD56
:105AB000FC1700202C07000004490A683B2149011B
:105AC00051180A7D02430A7570470000FC17002038
:105AD00000B51138C0B2FFF7A7FF002804D001229B
