:020000041004E6
:100000000060002091100410FB1B0410051C04105C
:10001000AA5555AA45554C420000000000000000BA
:100020000000000000000000000000000B1C041095
:1000300000000000000000008D0F0410151C0410CB
:10004000970F0410A10F0410000000000000000032
:100050001F1C0410AB0F04102D1C0410E70F04101C
:100060000000000000000000000000000000000090
:1000700000000000F10F0410FB0F04100510041025
:1000800000000000B50F0410BF0F0410C90F0410CA
:10009000D30F0410DD0F0410191004100F100410FA
:1000A0000000000000000000000000000000000050
:1000B0000000000000000000000000000000000040
:1000C000002243088B4274D303098B425FD3030A97
:1000D0008B4244D3030B8B4228D3030C8B420DD3AA
:1000E000FF22090212BA030C8B4202D31212090238
:1000F00065D0030B8B4219D300E0090AC30B8B4276
:1001000001D3CB03C01A5241830B8B4201D38B0323
:10011000C01A5241430B8B4201D34B03C01A5241C8
:10012000030B8B4201D30B03C01A5241C30A8B420B
:1001300001D3CB02C01A5241830A8B4201D38B02F6
:10014000C01A5241430A8B4201D34B02C01A52419A
:10015000030A8B4201D30B02C01A5241CDD2C3090C
:100160008B4201D3CB01C01A524183098B4201D388
:100170008B01C01A524143098B4201D34B01C01A73
:10018000524103098B4201D30B01C01A5241C308EB
:100190008B4201D3CB00C01A524183088B4201D35A
:1001A0008B00C01A524143088B4201D34B00C01A46
:1001B0005241411A00D20146524110467047FFE7B2
:1001C00001B5002000F0F0F802BDC0460029F7D0CC
:1001D00076E7704703460B437FD4002243088B42E7
:1001E00074D303098B425FD3030A8B4244D3030BBE
:1001F0008B4228D3030C8B420DD3FF22090212BA83
:10020000030C8B4202D31212090265D0030B8B42FE
:1002100019D300E0090AC30B8B4201D3CB03C01AE8
:100220005241830B8B4201D38B03C01A5241430BC3
:100230008B4201D34B03C01A5241030B8B4201D3B3
:100240000B03C01A5241C30A8B4201D3CB02C01A1E
:100250005241830A8B4201D38B02C01A5241430A96
:100260008B4201D34B02C01A5241030A8B4201D385
:100270000B02C01A5241CDD2C3098B4201D3CB012C
:10028000C01A524183098B4201D38B01C01A5241DB
:1002900043098B4201D34B01C01A524103098B42DF
:1002A00001D30B01C01A5241C3088B4201D3CB00CA
:1002B000C01A524183088B4201D38B00C01A5241AD
:1002C00043088B4201D34B00C01A5241411A00D25D
:1002D00001465241104670475DE0CA0F00D04942C6
:1002E000031000D34042534000229C4603098B4236
:1002F0002DD3030A8B4212D3FC22890112BA030ABE
:100300008B420CD3890192118B4208D3890192113F
:100310008B4204D389013AD0921100E08909C309C4
:100320008B4201D3CB01C01A524183098B4201D3C6
:100330008B01C01A524143098B4201D34B01C01AB1
:10034000524103098B4201D30B01C01A5241C30829
:100350008B4201D3CB00C01A524183088B4201D398
:100360008B00C01A5241D9D243088B4201D34B00B3
:10037000C01A5241411A00D20146634652415B10F5
:10038000104601D34042002B00D5494270476346D6
:100390005B1000D3404201B5002000F005F802BD1B
:1003A0000029F8D016E770477047C04643780278B6
:1003B0001B021A438378C0781B04134300061843BA
:1003C0007047C046030A4B70030C8B70030E087015
:1003D000CB70704703005A78007812020243987875
:1003E000197900040243D878000610435A791202A2
:1003F0000A43997909040A43D979090611437047D8
:10040000030A5370030C9370030ED3700B0A5371DD
:100410000B0C93710B0E10701171D3717047C046A5
:1004200080B584B000AF0200BB1D1A800E4B1B6864
:100430000E4A934214D1BB1D1B88DB029A100E2377
:10044000FB181A800A4B3F221A81094B0E22BA1858
:1004500012889A61064B11221A8000F02FF800E0F2
:10046000C046BD4604B080BD14000020CCBCECFCEE
:100470000000104080B582B000AF786039600C4B4E
:100480001B680C4A93420FD10B4B3F221A810A4B37
:100490007A6892089A61084B3A681A64064B3322CC
:1004A0001A8000F00BF800E0C046BD4602B080BDE7
:1004B00014000020CCBCECFC0000104080B500AF64
:1004C000C046054B1B8ADB07DB0FDBB2012BF8D1E3
:1004D000C046BD4680BDC0460000104080B584B017
:1004E00000AF78600F23FB1800221A700F23FB184F
:1004F0007A6812791A707B681B79002B0AD18023E5
:10050000DB058022D20551687A681268D2430A401E
:100510005A6010E07B681B79062B0CD10F23FB1867
:1005200000221A708023DB058022D20551687A6888
:1005300012680A435A600E23FB1800221A70ACE0BE
:100540007B681A680E23FB181B78DA401300DAB2B6
:100550000D23FB1801210A401A700D23FB181B788C
:10056000002B00D192E00E23FB181B78072B19D823
:100570008023DB058022D205D26A0E217918097802
:1005800089000F2088400100C9430A400F217918D3
:1005900008780E21791809788900884001000A43FB
:1005A000DA6273E00E23FB181B78072B20D90E2389
:1005B000FB181B780F2B1BD88023DB058022D2056C
:1005C000126B0E2179180978083989000F208840AC
:1005D0000100C9430A400F21791808780E217918C3
:1005E000097808398900884001000A431A634DE000
:1005F0000E23FB181B780F2B20D90E23FB181B781A
:10060000172B1BD88023DB058022D205526B0E21CD
:1006100079180978103989000F2088400100C943F2
:100620000A400F21791808780E21791809781039B5
:100630008900884001000A435A6327E00E23FB1813
:100640001B78172B22D98023DB058022D205128F3D
:1006500092B212B20E2179180978183989000F2048
:100660008840010009B2C94309B20A4011B20F2201
:10067000BA1810780E22BA181278183A92009040E0
:10068000020012B20A4312B292B21A870E23FB186A
:100690001A780E23FB1801321A700E23FB181B78F0
:1006A000192B00D84CE77B685B79012B09D180239B
:1006B000DB058022D205D1687A6812680A43DA60C5
:1006C00009E08023DB058022D205D1687A681268B0
:1006D000D2430A40DA607B689B79012B09D18023E1
:1006E000DB058022D20591687A6812680A439A6015
:1006F00009E08023DB058022D20591687A681268C0
:10070000D2430A409A60C046BD4604B080BD80B561
:1007100082B000AF78600A00FB1C1A70FB1C1B78CB
:10072000012B04D18023DB057A68DA6303E08023A0
:10073000DB057A681A64C046BD4602B080BD80B54C
:1007400000AFC0231B061A6880210A431A60C02329
:100750001B061A6880218A431A60C046BD4680BDC8
:1007600080B582B000AF78600A00FB1C1A70FB1CD9
:100770001B78012B06D1094B084A116A7A680A4393
:100780001A6206E0054B054A126A7968C9430A40B5
:100790001A62C046BD4602B080BDC046000090400F
:1007A00080B584B000AF664B1B7ADBB2BB60654B93
:1007B0001B899BB27B600E23FB1800221A80BB684A
:1007C000002B0CD17B6809221340092B07D10E2383
:1007D000FB180E22BA18128820210A431A80BB681F
:1007E000002B0CD17B6811221340112B07D10E2353
:1007F000FB180E22BA18128840210A431A80BB68DF
:10080000002B0CD17B6821221340212B07D10E2312
:10081000FB180E22BA18128880210A431A80BB687E
:10082000002B0DD17B6841221340412B08D10E23B0
:10083000FB180E22BA181288802149000A431A8038
:10084000BB68002B0DD17B6881221340812B08D11E
:100850000E23FB180E22BA181288802189000A4341
:100860001A80BB68002B10D17A680223FF331A402C
:100870000223FF339A4208D10E23FB180E22BA1826
:1008800012888021C9000A431A80BB68002B0ED150
:100890007B682D4A13402C4A934208D10E23FB1843
:1008A0000E22BA181288802109010A431A80BB68F7
:1008B000002B0CD17B6805221340052B07D10E239A
:1008C000FB180E22BA18128810210A431A80BB683E
:1008D000002B0CD17B6803221340032B07D10E237E
:1008E000FB180E22BA18128808210A431A80BB6826
:1008F000022B07D10E23FB180E22BA1812880121F1
:100900000A431A80BB68042B07D10E23FB180E2262
:10091000BA18128802210A431A80BB68082B07D133
:100920000E23FB180E22BA18128804210A431A80DB
:100930000E23FB181B881800BD4604B080BDC046BE
:1009400000009040000010480104000080B582B013
:1009500000AF0200FB1D1A70FB1D1B78002B05D099
:10096000074A136B01210B43136304E0044A136B22
:1009700001218B431363C046BD4602B080BDC04613
:100980000000304090B585B000AF78609D4B1B6B88
:100990001B07DB0FDBB2002B09D17B681B681B0137
:1009A00019009948FFF78CFB0300FB6008E07B68A7
:1009B0001B68DB0019009448FFF782FB0300FB6013
:1009C000FB68DA090823FB181A808E4A0823FB18F3
:1009D0001B8893840823FB181B88DB011A00FB6823
:1009E0009B1A01335A080A23FB181A800A23FB18A2
:1009F0001B883F2B10D90823FB181A880823FB18E3
:100A000001321A800A23FB181B883F3B9AB20A2343
:100A1000FB183F210A401A807A4A0A23FB181B88D8
:100A2000D9B22823D15477497B681B791A1C032338
:100A30001340D8B22C228B5C032420404401602058
:100A40008343181C231C03438B546E4A7B685B79D9
:100A5000191C03230B40D9B2137F03200140480126
:100A600060218B43191C031C0B43137765497B687A
:100A70009B791A1C01231340D8B22C228B5C0124D1
:100A80002040C40008208343181C231C03438B54BC
:100A90005C4A7B689B79191C01230B40D9B2137FF8
:100AA00001200140C80008218B43191C031C0B4383
:100AB00013777B68DB79002B0BD152492C228B5C9E
:100AC000022083438B544F4A137F02218B431377B9
:100AD00030E07B68DB79022B16D14A492C228B5CF3
:100AE000022003438B5447492C228B5C0420834310
:100AF0008B54444A137F02210B431377414A137FDF
:100B000004218B43137715E03E492C228B5C022095
:100B100003438B543B492C228B5C042003438B54AE
:100B2000384A137F02210B431377364A137F04217F
:100B30000B431377334A7B681B7A191C01230B4044
:100B4000D9B2136B012001404902304803400B43E6
:100B500013632C4A7B681B7A5B08DBB2191C0123E8
:100B60000B40D9B2136B0120014009022848034011
:100B70000B431363234A7B685B7A191C01230B40E8
:100B8000D9B2136B012001408903224803400B4373
:100B900013631C4A7B685B7A5B08DBB2191C012378
:100BA0000B40D9B2136B01200140C9031A4803401E
:100BB0000B43136313497B689B7A1A1C0123134070
:100BC000D8B22C228B5C01242040040110208343E6
:100BD000181C231C03438B540A4A7B689B7A191CFC
:100BE00001230B40D9B2137F0120014008011021DD
:100BF0008B43191C031C0B431377C046BD4605B03D
:100C000090BDC046000030400000127AFFFDFFFF9B
:100C1000FFFEFFFFFFBFFFFFFF7FFFFF80B582B03A
:100C200000AF0200BB1D1A807B1D0A1C1A707B1DC1
:100C30001B78002B09D00E490D4B1B8F9AB2BB1DA0
:100C40001B8813439BB20B870DE00949084B1B8F90
:100C50009BB21BB2BA1D0020125ED24312B21340E7
:100C60001BB29BB20B87C046BD4602B080BDC046DA
:100C70000000304080B582B000AF0200BB1D1A807A
:100C8000054ABB1D1B88DB05DB0D9BB21380C046EC
:100C9000BD4602B080BDC0460000304080B500AF08
:100CA000044B1B889BB2FF2213409BB21800BD4629
:100CB00080BDC0460000304080B582B000AF786093
:100CC0007B68002B08DA0B4B5B687A68134001D015
:100CD00001230BE0002309E0064B1B8B9BB21A009B
:100CE0007B68134001D0012300E000231800BD46BB
:100CF00002B080BD0000304080B582B000AF02007D
:100D0000BB1D1A80074B9B8F9BB2BA1D12881340E4
:100D10009BB2002B01D0012300E000231800BD4648
:100D200002B080BD0000304090B583B000AF02003B
:100D3000FB1D1A700A49FB1D1B7807221340D8B20D
:100D400034228B5C07242040C40038208343181CC5
:100D5000231C03438B54C046BD4603B090BDC04620
:100D600000003040B0B582B000AF02003960FB1D1A
:100D70001A70FB1D1B787F2B32D92F4CFB1D1B7863
:100D80001A000F231340083B99082B4AFB1D1B78C0
:100D900018000F230340083B9B0806339B00D31821
:100DA00004331B68FA1D1278100003220240D2009F
:100DB000FF2090400200D2431A403B689B01FF2075
:100DC0001840FB1D1B781D0003232B40DB009840BF
:100DD00003001A438B1D9B00E31804331A6027E0BD
:100DE000164CFB1D1B785BB29B081449FA1D127848
:100DF00052B29208C03292005258F91D0978080088
:100E000003210140C900FF2088400100C94311406F
:100E10003A689201FF201040FA1D12781500032253
:100E20002A40D200904002000A43C0339B001A516E
:100E3000C046BD4602B0B0BD00ED00E000E100E0FC
:100E400080B582B000AF78607B689B78002B18D0AB
:100E50007B681B785AB27B685B7819001000FFF73B
:100E600081FF12497B681B785B09DBB218007B6845
:100E70001B781A001F23134001229A4083005A5006
:100E800010E00A497B681B785B09DBB218007B68BD
:100E90001B781A001F23134001229A4003002033BD
:100EA0009B005A50C046BD4602B080BD00E100E044
:100EB000B0B582B000AF02003960FB1D1A70FB1D97
:100EC0001B787F2B32D92F4CFB1D1B781A000F2368
:100ED0001340083B99082B4AFB1D1B7818000F2371
:100EE0000340083B9B0806339B00D31804331B6860
:100EF000FA1D1278100003220240D200FF20904019
:100F00000200D2431A403B689B01FF201840FB1DA2
:100F10001B781D0003232B40DB00984003001A437D
:100F20008B1D9B00E31804331A6027E0164CFB1D51
:100F30001B785BB29B081449FA1D127852B29208D2
:100F4000C03292005258F91D09780800032101406F
:100F5000C900FF2088400100C94311403A6892014E
:100F6000FF201040FA1D1278150003222A40D200FB
:100F7000904002000A43C0339B001A51C046BD4650
:100F800002B0B0BD00ED00E000E100E080B500AFD0
:100F9000C046BD4680BD80B500AFC046BD4680BDE1
:100FA00080B500AFC046BD4680BD80B500AFC0462D
:100FB000BD4680BD80B500AFC046BD4680BD80B592
:100FC00000AFC046BD4680BD80B500AFC046BD463F
:100FD00080BD80B500AFC046BD4680BD80B500AFC6
:100FE000C046BD4680BD80B500AFC046BD4680BD91
:100FF00080B500AFC046BD4680BD80B500AFC046DD
:10100000BD4680BD80B500AFC046BD4680BD80B541
:1010100000AFC046BD4680BD80B500AFC046BD46EE
:1010200080BD000080B582B000AF174A137A01215D
:101030000B431372154B00221A60FB1D00221A701D
:101040000FE0FFF7ADFB03001A003B1D1A803B1DAC
:101050001B889BB2002B09D1FB1D1A78FB1D0132A6
:101060001A70FB1D1B78022BEBD900E0C0463B1D1C
:101070001B889BB21F2B01D9002300E0012318001D
:10108000BD4602B080BDC0460000204014000020D4
:1010900080B584B000AFFFF7C5FF0300012B39D145
:1010A000224BFB60224BBB6007E0BB681A1DBA6095
:1010B000FA68111DF96012681A60BA681D4B9A42ED
:1010C000F3D31D4BFB601D4BBB6007E0BB681A1DD3
:1010D000BA60FA68111DF96012681A60BA68184B94
:1010E0009A42F3D3174BBB6004E0BB681A1DBA6089
:1010F00000221A60BA68144B9A42F6D3134BBB60B5
:1011000004E0BB681A1DBA6000221A60BA68104B6E
:101110009A42F6D30F4B7B607B6883F3088801F01B
:1011200001FBC046BD4604B080BDC046E82805109E
:10113000B4170020A0180020BC28051008000020CB
:1011400034000020C0000020CC020020CC0200208F
:10115000B41700200060002080B582B000AFFB1DF6
:1011600000221A700BE0FB1D1B78224AD35CDBB215
:101170000133D9B2FB1DFA1D12788A181A70FB1DB3
:101180001B781C4AD35CDBB2002BECD1FB1D1B7817
:1011900003331F2B2ADCFB1D1B78164A0221D15476
:1011A000FB1D1B780133134A2121D154FB1D1B78F1
:1011B0000233104A0821D154FB1D1B7803330D4A1A
:1011C0000021D1549023DB05FA1D1178094A8A18B1
:1011D00092B21100802252020A43DA60C046902384
:1011E000DB05DA6880235B021340F8D1C046BD46B8
:1011F00002B080BD0003002080B584B000AF0200C3
:10120000FB1D1A700F23FB1800221A700EE00F232B
:10121000FB181B78234AD35CDBB20133D9B20F230E
:10122000FB180F22BA1812788A181A700F23FB18AD
:101230001B781C4AD35CDBB2002BE8D10F23FB18D0
:101240001B7803331F2B1BDC0F23FB181B78154A5D
:101250000221D1540F23FB181B780133114A352189
:10126000D1540F23FB181B7802330E4AF91D09785D
:10127000D1540F23FB181B7803330A4A0021D154A1
:10128000094B02221A70084B35225A70064BFA1D80
:1012900012789A70044B0022DA70C046BD4604B042
:1012A00080BDC046000300201C00002090B591B016
:1012B00000AF0200FB1D1A70BB1D0A1C1A700C2324
:1012C000FB18824A13CA13C313CA13C312781A70C5
:1012D0002823FB18180000F0EFFBFB1D1B78002BE8
:1012E00000D1C4E00C23FB1844229A73784A137A85
:1012F00001210B4313720C23FB184C22DA720C23CE
:10130000FB1820221A720C23FB18B2225A740C23E9
:10131000FB185B221A756F4B1B68FB63FB6B1B0C86
:101320006D4A934219D10C23FB18DB7DDBB270228E
:101330009343DAB20C23FB18DA750C23FB18DB7D20
:10134000DAB2FB6BDBB21B01DBB270210B40DBB20C
:101350001343DAB20C23FB18DA75604B1B68FB638E
:10136000FB6B1B0C5C4A934219D10C23FB185B7975
:10137000DBB230229343DAB20C23FB185A710C23F0
:10138000FB185B79DAB2FB6BDBB21B01DBB23021FD
:101390000B40DBB21343DAB20C23FB185A71504BEB
:1013A0001B68FB63FB6B1B0C4B4A934217D10C234E
:1013B000FB18DB7DDBB203229343DAB20C23FB186C
:1013C000DA750C23FB18DB7DDAB2FB6BDBB2032191
:1013D0000B40DBB21343DAB20C23FB18DA750C2393
:1013E000FB18DB7ADBB204229343DAB20C23FB183E
:1013F000DA722823FB185B781B012822BA1892782E
:101400001343112B15DD0C23FB18DB7DDBB204220B
:101410001343DAB20C23FB18DA753B23FB180C22BA
:10142000BA18D27D1A703B23FB181B781800FFF7FF
:10143000E3FE9023DB050C22BA1892B21100802241
:1014400052020A43DA60C0469023DB05DA68802343
:101450005B021340F8D12823FB185B781B0128227C
:10146000BA1892781343112B01DDFFF775FEC046C1
:101470001C4B1B8B9BB2002BFAD01A4B01221A83F8
:10148000184B17229A81174B00221A61BB1D1B783B
:10149000002B0CD09023DB051B697B63C046902397
:1014A000DB051A697B6B534010221340F7D0FB1DFC
:1014B0001B78002B02D00C4B15221A700B4B0C4AD8
:1014C0001A60C046BD4611B090BDC0469C210510B3
:1014D00000002040E807001055AA0000E4070010B3
:1014E000B0070010000010480000C04014000020A9
:1014F000CCBCECFC80B500AF2C4B08229A800223B8
:101500005B4203211800FFF7D3FC01235B42032158
:101510001800FFF7CDFC03210020FFF7C9FC0321D1
:101520000120FFF7C5FC03210420FFF7C1FC0321C4
:101530000520FFF7BDFC00210620FFF7B9FC0321C1
:101540000720FFF7B5FC03210D20FFF7B1FC0321B5
:101550000E20FFF7ADFC03210F20FFF7A9FC0321AC
:101560001120FFF7A5FC03211220FFF7A1FC0321A6
:101570001320FFF79DFC03211420FFF799FC0321A2
:101580001520FFF795FC03211620FFF791FC03219E
:101590001720FFF78DFC01210120FFF787FE044B88
:1015A000044A1A6262B6C046BD4680BD00001040C3
:1015B0000000904066000E0080B582B000AF0200CF
:1015C000FB1D1A70C0462020FFF776FB0300012B9D
:1015D000F9D0FB1D1B789BB21800FFF74BFBC046F0
:1015E000BD4602B080BD000080B588B000AF786015
:1015F00001210920FFF7B4F800F054FA03005A1E45
:10160000334B9200D2580C23FB181A6000F04AFAB0
:1016100003005A1E2F4B9200D358DAB20C23FB184A
:101620001A710C23FB1800229A710C23FB1800225C
:101630005A710C23FB181800FEF750FF00F032FA25
:1016400003005A1E244B9200D2580C23FB181A6038
:1016500000F028FA03005A1E204B9200D358DAB249
:101660000C23FB181A710C23FB181800FEF736FF29
:101670001423FB187A681A601423FB1803221A71CA
:101680001423FB1803225A711423FB1800229A71A9
:101690001423FB180022DA711423FB1800225A725B
:1016A0001423FB1803221A721423FB1801229A72C6
:1016B0001423FB181800FFF765F90020FFF734FB2F
:1016C0000120FFF743F9C046BD4608B080BDC046C3
:1016D0007C26051080260510842605108826051016
:1016E00080B584B000AF0200FB1D1A700C23FB18FC
:1016F00004221A700C23FB1803225A700C23FB18C7
:10170000FA1D12789A700C23FB181800FFF798FB4B
:10171000FB1D1B7819001020FFF780FAC046BD465C
:1017200004B080BD80B582B000AF1020FFF7E4FAAE
:10173000031E10D00AE0FFF7B1FA0300DAB2FB1D76
:101740001A70FB1D0121180000F03AF81020FFF775
:10175000B3FA031EEFD0C046BD4602B080BD000004
:1017600080B582B000AF78600B4B7A681A60E123D5
:101770005B021800FFF738FF0120FFF7B1FF074BAE
:101780001B68986800230222002101F0EDF9C04691
:10179000BD4602B080BDC046200300203C1800209A
:1017A00080B582B000AF0200FB1D1A70FB1D1B78D4
:1017B0001800FFF701FFC046BD4602B080BD000023
:1017C00080B582B000AF78600A00BB1C1A80074B5E
:1017D0001B68002B06D0054B1B68BA1C11887A6861
:1017E00010009847C046BD4602B080BD20030020CF
:1017F00080B582B000AF0200FB1D1A700B4B1B6856
:101800000B4AF91D0978D154084B1B685A1C074B29
:101810001A60064B1A688023DB009A4202D1034B00
:1018200000221A60C046BD4602B080BD24070020D9
:101830002403002080B582B000AF7860104B1A6896
:10184000104B1B689A4201D1012314E00D4B1B6819
:101850000D4AD25C7B681A700A4B1B685A1C094BF4
:101860001A60084B1A688023DB009A4202D1054BAC
:1018700000221A6000231800BD4602B080BDC04699
:1018800024070020280700202403002080B584B00E
:1018900000AF78600A00BB1C1A800E23FB180022E0
:1018A0001A800FE00E23FB181B887A68D3181B7868
:1018B0001800FFF79DFF0E23FB181A880E23FB1854
:1018C00001321A800E23FA18BB1C12881B889A4218
:1018D000E8D3C046BD4604B080BD000080B584B0EA
:1018E00000AF7860104B1B68002B02D10E4B0F4AE3
:1018F0001A600D4B1B68FB600B4B1A687B68D21893
:101900000B4B9A4205D90B4B0C221A6001235B4208
:1019100006E0054B1A687B68D218034B1A60FB6817
:101920001800BD4604B080BD2C1700202C070020F5
:101930002C170020B017002080B582B000AF78606F
:1019400001235B421800BD4602B080BD80B582B065
:1019500000AF786039603B68802292015A600023B2
:101960001800BD4602B080BD80B582B000AF78607F
:1019700001231800BD4602B080BD80B584B000AF21
:10198000F860B9607A6000231800BD4604B080BDDD
:1019900080B586B000AFF860B9607A6000237B61E3
:1019A00009E07B69BA68D3181B781800FFF7F8FEC6
:1019B0007B6901337B617A697B689A42F1DB7B68E2
:1019C0001800BD4606B080BD80B586B000AFF86097
:1019D000B9607A6000237B610EE07B69BA68D31836
:1019E0001800FFF727FF031E03D17B6901337B61DA
:1019F00002E07B69002B04D17A697B689A42ECD3C0
:101A000000E0C0467B691800BD4606B080BD80B5C9
:101A100082B000AF78607B681800FFF70BFF031EF1
:101A200001D1012300E000231800BD4602B080BDB3
:101A300080B584B000AFF860B9607A607A68B96840
:101A4000FB68180000F0E9FFC046BD4604B080BD49
:101A500080B584B000AFF860B9607A607A68B96820
:101A6000FB68180000F0D9FFC046BD4604B080BD39
:101A700080B582B000AF786039603A687B68002139
:101A8000180000F0E5FFC046BD4602B080BD000072
:101A900080B500AF024B01221A70C046BD4680BD22
:101AA0003017002080B500AF024B1B78DBB2180066
:101AB000BD4680BD3017002080B584B000AF78608F
:101AC0001F4BFB601F4BBB601F4BDB691B061B0FD3
:101AD000DBB21A007B685A701B4BDB691B071B0FBC
:101AE000DBB21A007B689A70FB681A687B685A60E0
:101AF0007B685B68154A93420CD1BB681B68144A2B
:101B0000934203D17B6804221A7006E07B680222AC
:101B10001A7002E07B6801221A707B685B78002BE8
:101B200002D17B6801225A700A4B9B8A9BB2013317
:101B30009B001A007B689A60C046BD4604B080BD19
:101B4000280090401C0000100000904041A00002BE
:101B500044A000F20000104080B588B000AFF860EB
:101B6000B9607A601423FB181800FFF7A5FF14234F
:101B7000FB181A78FB681A701423FB185A78BB6894
:101B80001A701423FB189A787B681A70C046BD46F9
:101B900008B080BD80B584B000AFF860B9607A60ED
:101BA0007A68B968FB68180000F037FF0300180076
:101BB000BD4604B080BD80B584B000AFF860B960A8
:101BC0007A607A68B968FB68180000F041FF03008A
:101BD0001800BD4604B080BD80B584B000AFF86089
:101BE000B9607A607A68B968FB68180000F006FF8F
:101BF00003001800BD4604B080BD80B500AFC046EC
:101C0000BD4680BD80B500AFFEE780B500AFC046E1
:101C1000BD4680BD80B500AFC046BD4680BD80B525
:101C200000AFFFF77FFDC046BD4680BD80B500AF69
:101C300005F0F2FDC046BD4680BD80B582B000AF64
:101C400078607B68002B07D100213C20FEF75FFD08
:101C500001210420FEF75BFD7B68012B07D10021E9
:101C60003C20FEF754FD01210C20FEF750FD7B685F
:101C7000022B07D100213C20FEF749FD012108205D
:101C8000FEF745FD7B68032B07D100213C20FEF7C2
:101C90003EFD01211820FEF73AFD7B68042B07D199
:101CA00000213C20FEF733FD01211020FEF72FFD1F
:101CB0007B68052B07D100213C20FEF728FD012180
:101CC0003020FEF724FD7B68062B07D100213C2045
:101CD000FEF71DFD01212020FEF719FD7B68072B73
:101CE00007D100213C20FEF712FD01212420FEF740
:101CF0000EFDC046BD4602B080BD80B584B000AFC9
:101D000078600023FB606AE00020FFF796FF002365
:101D1000BB6002E0BB680133BB60BA687B689A4273
:101D2000F8DB0120FFF789FF0023BB6002E0BB68FE
:101D30000133BB60BA687B689A42F8DB0220FFF788
:101D40007CFF0023BB6002E0BB680133BB60BA6864
:101D50007B689A42F8DB0320FFF76FFF0023BB602C
:101D600002E0BB680133BB60BA687B689A42F8DB6B
:101D70000420FFF762FF0023BB6002E0BB68013371
:101D8000BB60BA687B689A42F8DB0520FFF755FF15
:101D90000023BB6002E0BB680133BB60BA687B68AC
:101DA0009A42F8DB0620FFF748FF0023BB6002E001
:101DB000BB680133BB60BA687B689A42F8DB0720D6
:101DC000FFF73BFF0023BB6002E0BB680133BB6051
:101DD000BA687B689A42F8DBFB680133FB60FB68FA
:101DE000F92B91DDC046BD4604B080BD80B584B0FE
:101DF00000AF78600023FB606AE00720FFF71DFF5B
:101E00000023BB6002E0BB680133BB60BA687B683B
:101E10009A42F8DB0620FFF710FF0023BB6002E0C8
:101E2000BB680133BB60BA687B689A42F8DB052067
:101E3000FFF703FF0023BB6002E0BB680133BB6018
:101E4000BA687B689A42F8DB0420FFF7F6FE0023AD
:101E5000BB6002E0BB680133BB60BA687B689A4232
:101E6000F8DB0320FFF7E9FE0023BB6002E0BB685C
:101E70000133BB60BA687B689A42F8DB0220FFF747
:101E8000DCFE0023BB6002E0BB680133BB60BA68C4
:101E90007B689A42F8DB0120FFF7CFFE0023BB608E
:101EA00002E0BB680133BB60BA687B689A42F8DB2A
:101EB0000020FFF7C2FE0023BB6002E0BB680133D5
:101EC000BB60BA687B689A42F8DBFB680133FB6051
:101ED000FB68F92B91DDC046BD4604B080BD000013
:101EE00080B500AFBFF34F8F024B034ADA60BFF3F8
:101EF0004F8FFEE700ED00E00400FA0590B58DB0CD
:101F000004AF0C23FB185E4A13CA13C31F23FB182C
:101F100001221A703B1D5B4A1168196092889A80F1
:101F20001E23FC183B1D1A000621002001F0BBFEF9
:101F3000030023701E23FB181B78002B0BD01E23DD
:101F4000FB181A78504B1100180000F089FD1E2371
:101F5000FB181B788FE00421012001F0A0FE1E2356
:101F6000FC1801F087FE030023701E23FB181B786A
:101F7000002B0BD01E23FB181A78444B11001800BD
:101F800000F06EFD1E23FB181B7874E0404B180018
:101F900000F0E0FD1E23FC181C23FA181F23FB1879
:101FA00018781823FB1801931A23FB1800931300C9
:101FB0000C22002101F0D4FD030023701E23FB1826
:101FC0001B78002B0BD01E23FB181A78314B110005
:101FD000180000F045FD1E23FB181B784BE02E4B2C
:101FE000180000F0B7FD1C23FB1819881A23FB18F2
:101FF0001A881E23FC180C23FB1803930C2302934E
:10200000002301930C2300930023002001F036FEEF
:10201000030023701E23FB181B78002B0BD01E23FC
:10202000FB181A781D4B1100180000F019FD1E2333
:10203000FB181B781FE01A4B180000F08BFD1E23C5
:10204000FC1800F0C1F9030023701E23FB181B7855
:10205000002B0BD01E23FB181A78124B110018000E
:1020600000F0FEFC1E23FB181B7804E00E4B18004A
:1020700000F070FD00231800BD4609B090BDC046B9
:102080000823051014230510B8210510DC210510C4
:1020900000220510202205104422051060220510A0
:1020A00094220510C4220510E822051080B588B0DE
:1020B00004AF0200FB1D1A700C23FB1859221A7082
:1020C000154B1988154B1A880C23FB180393012311
:1020D000029300230193012300930023002001F0C9
:1020E000CDFD03001A000E4B1A700D4B1B78002B10
:1020F00008D00B4B1B781A000A4B1100180000F097
:10210000AFFC03E0084B180000F024FD044B1B78E3
:102110001800BD4604B080BD881700208A17002033
:1021200074170020602205109422051080B500AFBE
:102130004F4B1B68022213400ED0FA239B0018005D
:1021400000F038FB4B4B01221A70494B1B680222EE
:1021500093431A00464B1A60474B1800FFF757FC91
:10216000031E20D0444B1B783F2B0CD004DC0A2BE1
:1021700014D00D2B12D00CE0722B07D0752B0FD082
:102180006C2B0FD005E000F0DFFA0CE0FFF7A8FEA3
:1021900009E03A4B180000F0DDFC04E0C04602E024
:1021A000C04600E0C046334B1B78062B5DD89A0032
:1021B000334BD3181B689F46E1235B021800FFF7DF
:1021C00013FA304B180000F0C5FC2A4B00221A709D
:1021D000274B1B6802221A43254B1A6045E0E12376
:1021E0005B021800FFF700FA274B180000F0B2FC62
:1021F000264B1B881A00264B1100180000F030FCFB
:102200001C4B00221A7030E0FA23DB001800FFF7A5
:10221000EDFD204B180000F023FC1F4B1B78013311
:10222000DAB21D4B1A701C4B1B781800FFF73EFFEB
:10223000104B00221A7018E0FA23DB001800FFF799
:102240005CFD164B180000F00BFC134B1B780133A0
:10225000DAB2114B1A70104B1B781800FFF726FFEB
:10226000044B00221A7000E0C046C046BD4680BD47
:1022700004180020A01700203C1700201C23051084
:102280008C2605103023051048230510AC170020BC
:102290005C2305108C2305103117002098230510AE
:1022A000B0B582B000AF05000C0010001900FB1D96
:1022B0002A1C1A703B1D221C1A80BB1D021C1A709E
:1022C000FB1C0A1C1A70064B02221A70054B1C22BA
:1022D000BA1812881A80C046BD4602B0B0BDC046CA
:1022E000A0170020AC17002090B583B000AF040009
:1022F00008001100FB1D221C1A703B1D021C1A80D5
:10230000BB1D0A1C1A70034B04221A70C046BD463E
:1023100003B090BDA0170020B0B582B000AF05009B
:102320000C0010001900BB1D2A1C1A803B1D221C2A
:102330001A80BB1C021C1A803B000A1C1A80BA6956
:102340003B0019883B1D1B88180000F0DFF8C046D1
:10235000BD4602B0B0BD000080B582B000AF020043
:10236000BB1D1A803B1D0A1C1A80054B1B682022CE
:1023700093431A00024B1A60C046BD4602B080BDAE
:102380000418002090B583B000AF040008001100CD
:10239000BB1D221C1A803B1D021C1A80BB1C0A1C80
:1023A0001A80C046BD4603B090BD80B582B000AF74
:1023B0003A60FB1D021C1A70BB1D0A1C1A70C04635
:1023C000BD4602B080BD000090B595B006AF242395
:1023D000FB18444A13CA13C312681A601423FB186B
:1023E000414A13CA13C312681A603B1D3F4A13CAFD
:1023F00013C312681A602423F9183D4B10221800E9
:10240000FFF7C8FB3723FC1839493A4B00930623E2
:102410000122022001F013FC030023703723FB1874
:102420001B78002B50D11423F918334B10221800BD
:10243000FFF7B0FB2F4B18883723FC182E4A2F4B81
:102440000593012304931023039301230293002394
:102450000193122300931423022101F0D1FB030006
:1024600023703723FB181B78002B2FD1391D224BEB
:1024700010221800FFF78EFB1E4B18883723FC181C
:102480001D4A1F4B0593012304931023039301233B
:102490000293002301930C2300931423022101F0E3
:1024A000AFFB030023703723FB181B78002B0FD1E1
:1024B000124B1B881900124B1B881A00114B180075
:1024C00000F0CEFA002309E0C04602E0C04600E07A
:1024D000C0460D4B180000F03DFB47231800BD46D9
:1024E0000FB090BD082405101824051028240510ED
:1024F0009017002088170020781700208A170020E6
:102500008C170020A4230510E423051080B584B0A7
:1025100000AF3A60BB1D021C1A803B1D0A1C1A80CA
:10252000BB1D1A88264B1B8801339A4232D1254B9A
:10253000180000F00FFB244B180000F091FA3B1D2F
:102540001A88224B1100180000F08AFA0023FB6061
:102550000CE0FB683A68D3181B781A001C4B11007A
:10256000180000F07DFAFB680133FB603B1D1A8800
:10257000FB689A42EDDC3B681B78552B02D1154B6A
:1025800005221A703B681B784C2B14D1114B062284
:102590001A7010E0BB1D1A880F4B1B8802339A4239
:1025A00009D13B681B78012B05D10C4B1B68042219
:1025B0001A430A4B1A60C046BD4604B080BDC046EF
:1025C0008C170020382405105024051060240510B5
:1025D00068240510A01700208A1700200418002086
:1025E000B0B582B000AF02003960FB1D1A70FB1D50
:1025F0001B787F2B32D92F4CFB1D1B781A000F2321
:102600001340083B99082B4AFB1D1B7818000F2329
:102610000340083B9B0806339B00D31804331B6818
:10262000FA1D1278100003220240D200FF209040D1
:102630000200D2431A403B689B01FF201840FB1D5B
:102640001B781D0003232B40DB00984003001A4336
:102650008B1D9B00E31804331A6027E0164CFB1D0A
:102660001B785BB29B081449FA1D127852B292088B
:10267000C03292005258F91D097808000321014028
:10268000C900FF2088400100C94311403A68920107
:10269000FF201040FA1D1278150003222A40D200B4
:1026A000904002000A43C0339B001A51C046BD4609
:1026B00002B0B0BD00ED00E000E100E080B500AF89
:1026C000BFF34F8F024B034ADA60BFF34F8FFEE731
:1026D00000ED00E00400FA0580B582B000AF78603C
:1026E0007B680E4A934201D9012312E00C4B7A68B1
:1026F0001202120A013A5A6001235B4203211800B8
:10270000FFF76EFF064B00229A60054B07221A6006
:1027100000231800BD4602B080BDC046FFFFFF0089
:1027200010E000E080B500AF00F0DAF800F0F0F85B
:10273000044B180000F00EFA01F0BAFAFFF7F6FCAD
:10274000FAE7C0467024051080B500AF114B1800A1
:1027500000F000FA104B180000F0FCF90F4B1800C5
:1027600000F0F8F90E4B180000F0F4F90D4B1800CA
:1027700000F0F0F90C4B180000F0ECF90B4B1800CE
:1027800000F0E8F90A4B180000F06AF9C046BD46AF
:1027900080BDC0469024051094240510AC2405107B
:1027A000C8240510082505104825051064250510C6
:1027B00084250510B0B58EB008AF0200BB1D1A808D
:1027C0000823FB182F4A13CA13C312781A70BB1DB3
:1027D0001A88FA239B009A4204D12B4B180000F070
:1027E0003FF903E0294B180000F03AF900210020DE
:1027F00004F04DFABB1D1B88FA2292005343244972
:102800001800FDF7E7FC03009DB2BB1D1B88FA22F0
:10281000920053431E491800FDF7DCFC03009AB2F6
:102820001723FC1800230693002305930023049329
:10283000002303930823FB1802930D230193002325
:10284000009300232900002001F0A2F90300237067
:102850001723FB181B78002B08D01723FB181A78B6
:102860000C4B1100180000F0FBF806E00A4B0122A7
:102870001A700A4B180000F06DF9C046BD4606B04C
:10288000B0BDC0460C2605108C250510B8250510D6
:1028900071020000E4250510A0170020FC2505109A
:1028A00080B500AF01210120FDF75AFF0B4B3C2200
:1028B0001A600A4B06221A71084B00229A71074BC4
:1028C00001225A71054B1800FDF708FE00213C203B
:1028D000FDF71DFFC046BD4680BDC046A4170020C1
:1028E00080B500AFFEF706FEFFF7D2F8074B1800E1
:1028F000FEF736FFC0231B0300211800FDF730FF51
:10290000FFF7CEFFC046BD4680BDC0468D180410FF
:1029100080B582B000AF144B180001F00BFA030031
:102920007B607B68002B06D07A68104B1100180082
:1029300000F096F8FEE7FFF7E1FA03007B607B68A2
:10294000002B06D07A680A4B1100180000F088F8B6
:10295000FEE7084B00221A70074B1800FFF7BCFE79
:10296000C046BD4602B080BD081800201C260510D8
:1029700054260510A0170020FF7C000080B582B00F
:1029800000AF0200FB1D1A70FFF798FEC046BD465F
:1029900002B080BD80B584B000AF3A60FB1D021C60
:1029A0001A70BB1D0A1C1A70FB1D1B78032B13D851
:1029B0003B681B781AB23B6801331B781B021BB2C1
:1029C00013431AB20E23FB181A800E23FB181B8820
:1029D0001321180001F0FDF8C046BD4604B080BDCB
:1029E00080B582B000AF0200FB1D1A70C046BD4624
:1029F00002B080BD10B500F019F810BD30B500244C
:102A0000A24201D1002005E0035D651C0C5DA342DC
:102A100001D0181B30BD2C00F2E7002310B59A42FC
:102A200000D110BDCC5CC4540133F8E710B5884226
:102A300002D98B18984208D300239A4207D0CC5C65
:102A4000C4540133F9E78B5C8354013AFBD210BDC7
:102A500003008218934200D1704719700133F9E7DF
:102A60000FB40B4B13B51C68002C05D0A369002BC9
:102A700002D1200000F0E8FA05AB049AA16820001A
:102A8000019300F0BDFC16BC08BC04B01847C0465A
:102A90003C18002070B505000E00002804D08369A2
:102AA000002B01D100F0D0FAAB69AC68002B02D149
:102AB000280000F0C9FA244B9C420FD16C68A3890E
:102AC0001B0702D52369002B20D12100280000F02C
:102AD0004DF900281AD00120404270BD1B4B9C428A
:102AE00001D1AC68EBE71A4B9C42E8D1EC68E6E711
:102AF000013B0136A360002B04DAA269934216DB86
:102B00000A2914D023685A1C226019703178A368EE
:102B10000029EDD1013BA360002B0FDA22000A311E
:102B2000280000F0CDF8431CD5D00A20D5E72200BC
:102B3000280000F0C5F8431CE8D1CCE70A20236840
:102B40005A1C22601870C8E7CC260510EC26051028
:102B5000AC26051010B5034B01001868FFF79AFF6B
:102B600010BDC0463C180020F0B51D004F4B85B08D
:102B70001E6804000F000092002E05D0B369002BE0
:102B800002D1300000F060FA494B9C4250D1746889
:102B9000009B022B05D0012B00D984E0002D00DA28
:102BA00081E02100300000F0E1F9616B002908D0DC
:102BB00023004433994202D0300000F051FB00233F
:102BC00063630023A3616360A3891B0603D52169A6
:102BD000300000F045FBA389364A1340A381009BD7
:102BE000022B5AD003AB02AA2100300000F0C2FA37
:102BF000A3891843A081002D24D1029D280000F054
:102C000025FB0195071E42D1029B0193AB4239D1AE
:102C1000012040420223A2891343A3810023A36021
:102C200023004733236023610123636105B0F0BDB6
:102C3000214B9C4201D1B468AAE7204B9C42A7D10A
:102C4000F468A5E7002FD9D0B369002B02D130007A
:102C500000F0FAF9009B012B03D1A389009A1A43D3
:102C6000A2810820A389276027616561184018D0D8
:102C7000012018400023984211D06D42A360A56145
:102C80001800D3E7019800F0E1FA071EC0D08023B6
:102C9000A289019D1343A381D6E70020BAE7A5606E
:102CA000C4E7A060C2E701204042BFE73C18002013
:102CB000CC2605105CF3FFFFEC260510AC260510B2
:102CC000F8B505000E001400002804D08369002B1D
:102CD00001D100F0B9F9224B9C422DD16C68A36957
:102CE000A360A3891B0731D52369002B2ED023684D
:102CF0002269F7B2981A6369F6B2984205DB21009F
:102D0000280000F033F9002826D1A3680130013BE8
:102D1000A36023685A1C22601F706369984204D024
:102D2000A389DB071AD50A2E18D12100280000F04C
:102D30001DF9002812D00FE00A4B9C4201D1AC686B
:102D4000CDE7094B9C42CAD1EC68C8E721002800B6
:102D500000F00CF80028CAD0012676423000F8BDF9
:102D6000CC260510EC260510AC260510364B70B5A8
:102D70001D6806000C00002D05D0AB69002B02D1A8
:102D8000280000F061F9314B9C420FD16C680C2394
:102D9000E25E93B219072DD4D90611D4092301207C
:102DA000336037331343A381404270BD284B9C42AC
:102DB00001D1AC68EBE7274B9C42E8D1EC68E6E731
:102DC0005B0713D5616B002908D023004433994277
:102DD00002D0300000F044FA002363632422A38968
:102DE0009343A38100236360236923600823A2899E
:102DF0001343A3812369002B0BD1A0218022A38937
:102E0000890092000B40934203D02100300000F073
:102E1000D9F90123A289134011D00023A36063696B
:102E20005B42A361002023698342BED10C23E25E92
:102E30001306BAD540231343A3810138B5E792079F
:102E400000D46369A360EDE73C180020CC26051090
:102E5000EC260510AC260510F7B58A8905000C0094
:102E6000130760D44B68002B04DC0B6C002B01DCD7
:102E70000020FEBDE76A002FFAD000232E682B60E9
:102E800080235B011A4034D0606DA3895B0706D5AF
:102E90006368C01A636B002B01D0236CC01A020058
:102EA000216A00232800E76AB847A189431C06D19C
:102EB0002B681D2B31D82C4ADA40D3072DD500239F
:102EC000636023692360CB0405D5431C02D12B68C2
:102ED000002B00D16065616B2E600029C8D02300F3
:102EE0004433994202D0280000F0BAF90020606310
:102EF000BFE70123216A2800B847431CC5D12B68CE
:102F0000002BC2D01D2B01D0162B01D12E60AFE7B4
:102F10004023A2891343A381ABE740230B43012045
:102F2000A3814042A5E70F69002FA1D00B680F6075
:102F3000DB1B01930023920700D14B69A360019B27
:102F4000002B00DC94E7019B3A00216A2800A66A66
:102F5000B047002803DC4023A2891343DFE7019B2D
:102F60003F181B1A0193EAE7010040200B6970B576
:102F700005000C00002B01D1002070BD002804D0FA
:102F80008369002B01D100F05FF80B4B9C4209D103
:102F90006C680C22A35E002BEED021002800FFF706
:102FA0005BFFEAE7054B9C4201D1AC68F1E7044BBB
:102FB0009C42EED1EC68ECE7CC260510EC2605101F
:102FC000AC26051010B5024900F0B2F810BDC0469D
:102FD0006D2F0410002310B504000360436083606C
:102FE00081814366C28103614361836119000822C4
:102FF0005C30FFF72DFD054B24626362044BA36236
:10300000044BE362044B236310BDC0466D390410CA
:1030100095390410CD390410F939041070B56825BC
:103020004A1E55430E002900743100F063F9041E56
:1030300008D000212A00016046600C30A060683290
:10304000FFF706FD200070BD836913B50400002B57
:1030500028D18364C3640365134B144A1B688262DE
:103060000193984201D101238361200000F020F8F0
:103070006060200000F01CF8A060200000F018F84C
:103080000022E06004216068FFF7A4FF012209210B
:10309000A068FFF79FFF02221221E068FFF79AFF66
:1030A0000123A36113BDC046A8260510C52F041037
:1030B000F8B51E4B07001E68B369002B02D1300023
:1030C000FFF7C2FF4836B4687368013B04D5336824
:1030D000002B07D03668F6E70C22A55E002D0DD038
:1030E0006834F2E704213800FFF798FF30600028C9
:1030F000F0D10C2304003B602000F8BD0123200028
:103100005B42E3810233A38165662560A56065604B
:1031100025616561A561082229005C30FFF798FCF4
:103120006563A563A564E564E6E7C046A8260510C7
:10313000F7B504000700002601914834002C01D1A6
:103140003000FEBD6368A5680093009B013B0093BF
:1031500001D52468F2E7AB89012B08D90E22AB5EBA
:10316000013304D029003800019B98470643683595
:10317000EBE7000070B50E001D000E23C95E90B095
:103180001400002907DA00232B60B3891B0611D431
:103190008023DB000FE001AA00F05AFC0028F2DBDC
:1031A000F022029B12021340054A9B185A425341D7
:1031B0002B60EDE740230020236010B070BDC046B7
:1031C00000E0FFFFF7B502268B8905000C003342B3
:1031D00006D0230047332360236101236361F7BDD9
:1031E00001AB6A46FFF7C6FF00990700280000F010
:1031F00081F8002808D10C22A35E9A05EFD403229F
:1032000093431E43A681E4E70F4BAB628023A28960
:1032100020601343A381009B20616361019B002B0D
:103220000DD00E23E15E280000F024FC002806D01B
:103230000322A38993431A0001231343A381A08986
:103240003843A081CBE7C046C52F041010B5034B0F
:103250000100186800F04EF810BDC0463C18002070
:1032600070B50500002910D00C1F2368002B00DA70
:10327000E418280000F02FFC1D4A1368002B05D12C
:1032800063601460280000F027FC70BDA34209D9D8
:10329000216860188342F3D118685B684118216087
:1032A000EEE713005A68002A01D0A242F9D9196842
:1032B0005818A0420BD1206809185818196082428A
:1032C000E0D110685268411819605A60DAE7A042EC
:1032D00002D90C232B60D5E721686018824203D104
:1032E000106852684118216062605C60CAE7C0469D
:1032F00034170020032370B5CD1C9D43083506000C
:103300000C2D1ED20C25A9421DD8300000F0E3FB85
:10331000254A14682100002919D1244C2368002B68
:1033200003D1300000F010FB20602900300000F0D5
:103330000BFB431C2CD10C233000336000F0CCFB82
:1033400003E0002DDFDA0C233360002070BD0B6832
:103350005B1B1AD40B2B03D90B60CC18256003E040
:103360008C420ED163681360300000F0B5FB200082
:1033700007220B30231D9043C31AE7D05A42E25074
:10338000E4E74B6863600C00EEE70C004968C2E7B5
:103390000323C41C9C43A042E0D0211A300000F05B
:1033A000D3FA431CDAD1C6E73417002038170020BF
:1033B000936810B5013B9360002B05DA9469A34232
:1033C00008DBCBB20A2B05D01368581C10601970AB
:1033D000C8B210BDFFF774FCFBE7F8B506000F009C
:1033E0001400D518AC4201D1002007E021783A0042
:1033F0003000FFF7DDFF0134431CF3D1F8BD0000BE
:10340000F0B59FB006000F0014000593002804D00B
:103410008369002B01D1FFF717FE7F4B9F425CD1E0
:103420007768BB891B0762D53B69002B5FD00023FF
:1034300006AD6B6120336B761033AB760294029C41
:103440002378002B5DD1029BE31A04930DD0049BDB
:10345000029A39003000FFF7C0FF431C00D1CCE0D6
:103460006A69049B944663446B612378002B00D106
:10347000C3E00122002352426A6002A9543252186A
:1034800001342B60EB60AB601370AB6521780522D3
:10349000624800F015FB631C9C46002835D1296862
:1034A000CB0604D5532302AA20309B1818700B07B3
:1034B00004D553232B2002AA9B18187023782A2B9B
:1034C0002CD000200A21099B2278303A092A00D802
:1034D0006BE000282AD0099328E0514B9F4201D18C
:1034E000B7689EE74F4B9F429BD1F76899E7390039
:1034F0003000FFF73BFC002899D0012040421FB06C
:10350000F0BD252B9FD001349AE7444B2968C01A9F
:10351000012383400B432B606446B7E7059B181DCE
:103520001B680590002B3ADB0993644623782E2B09
:103530000BD16378621C2A2B3FD1059B02341A1DE4
:103540001B680592002B35DB079321780322364850
:1035500000F0B6FA002807D0334B2A68C01A40237F
:10356000834013432B6001342178631C06222F48CB
:103570000293297600F0A4FA002844D02C4B002BAB
:103580002FD12968059B0722C90528D59B1893438D
:10359000083305936B69039A9B186B614FE75B4295
:1035A000EB6002230B432B60BFE74B4301349B18B6
:1035B000012089E701235B42C6E7002314000A20AB
:1035C0001A006B6021783039092903D9002BBCD04F
:1035D0000792BAE74243013452180123F2E7073356
:1035E000D5E705AB00933A00124B2900300000E00C
:1035F00000BF0390039B0133CCD1BB895B0600D590
:103600007BE70B987BE705AB00933A00094B290059
:10361000300000F07FF8ECE7CC2605100C270510F1
:10362000EC260510AC2605101227051016270510EC
:1036300000000000DB330410F7B5150001938A6821
:103640000B6900900C00934200DA130022002B60FB
:1036500043321278002A01D001332B6023689B0685
:1036600002D52B6802332B60062723681F4027D022
:10367000230043331B785A1E93412268920630D4AC
:103680002200019943320098089EB047431C25D080
:10369000062320682A68E16803400025042B03D133
:1036A0008D1AEB43DB171D40A3682269934201DDAD
:1036B0009B1AED180027BD4220D1002010E00137F1
:1036C000E3682A689B1A9F42D2DA2200012319324A
:1036D00001990098089EB047431CF0D10120404258
:1036E000FEBD3020E1184331087021005A1C4531DD
:1036F0000978A218433202331170C1E72200012376
:103700001A3201990098089EB047431CE6D0013751
:10371000D1E70000F0B58BB006920A004332079360
:10372000059004920A7E0C00109B6E2A00D18FE057
:1037300017D8632A2CD008D8002A00D199E0582A3B
:1037400054D026004236327029E0642A01D0692A1A
:10375000F7D121681A68080623D5111D196015686C
:1037600025E0732A00D188E008D86F2A29D0702A72
:10377000E7D1202209680A43226003E0752A20D09D
:10378000782ADED122007821453211706C4A30E06F
:103790000E001A684236111D196013683370012338
:1037A00079E04906D9D5111D19600023D55E002D99
:1037B00003DA2D23049A6D421370624B0A27039398
:1037C0002FE020681968050603D5081D18600D68EC
:1037D00005E04006F9D50D68081D1860ADB2594BDB
:1037E000082703936F2A18D00A2716E045310A707C
:1037F000544A03921A682168101D1860156808065B
:1038000022D5CB0702D52023194321601027002D94
:1038100003D1202322689A432260230000224333ED
:103820001A706368A360002B5CDB0422216891435B
:103830002160002D58D1049E002B64D02600039BEC
:1038400042361B7833705EE04806DAD5ADB2D8E771
:1038500009681A68080605D5111D196013686269A0
:103860001A6006E04906F7D5111D19601368A28A8F
:103870001A800023049E236154E01A68111D196008
:10388000166800216268300000F01AF9002801D0A3
:10389000801B6060636823610023049A137041E019
:1038A0002369320006990598079DA847431C43D019
:1038B000236800259B070FD4099BE06898423DDAF6
:1038C00018003BE022000123193206990598079E53
:1038D000B047431C30D00135E368099A9B1A9D42DA
:1038E000F0DBE9E7002DA9D0049E28003900FCF7A1
:1038F0006DFC039B013E5B5C280033703900FCF7D4
:10390000DFFB051EF1D1082F09D12368DB0706D59F
:1039100063682269934202DC3023013E3370049BCA
:103920009B1B2361079B09AA00932100069B059816
:10393000FFF782FE431CB3D1012040420BB0F0BD23
:103940002E2705101D270510002370B5064C050015
:1039500008002360FDF7C2FF431C03D12368002B3E
:1039600000D02B6070BDC046B017002070B50C00B1
:103970000E25495F00F0B2F8002803DB636D1B18C9
:10398000636570BDA389024A1340A381F9E7C0466D
:10399000FFEFFFFFF8B51F008B8905000C00160034
:1039A000DB0505D50E23C95E0022022300F074F862
:1039B000A389054A28001340A38132000E23E15E4B
:1039C0003B0000F01FF8F8BDFFEFFFFF70B50C00E3
:1039D0000E25495F00F060F8A389421C03D1054A17
:1039E0001340A38170BD802252011343A3816065FF
:1039F000F8E7C046FFEFFFFF10B50E23C95E00F0E9
:103A000015F810BD70B50500080011000022064C25
:103A100022601A00FDF7BCFF431C03D12368002B72
:103A200000D02B6070BDC046B0170020002370B5D9
:103A3000064C050008002360FDF77EFF431C03D100
:103A40002368002B00D02B6070BDC046B01700204B
:103A5000002370B5064C0500080011002360FDF737
:103A600075FF431C03D12368002B00D02B6070BD71
:103A7000B0170020002370B5064C05000800236035
:103A8000FDF772FF431C03D12368002B00D02B608D
:103A900070BDC046B017002070B5050008001100C9
:103AA0000022064C22601A00FDF767FF431C03D179
:103AB0002368002B00D02B6070BDC046B0170020DB
:103AC000C9B28218904201D10020704703788B421E
:103AD000FBD00130F6E770477047000070B5050075
:103AE000080011000022064C22601A00FDF76CFF4E
:103AF000431C03D12368002B00D02B6070BDC0464F
:103B0000B0170020F0B5054600200F46079E059C23
:103B1000174309D0202905D30127BF03BA4201D892
:103B2000914201D94220F0BD194621430AD09C425E
:103B3000F8D309498C4203D00849A41F8C42F1D222
:103B4000062BEFD3002D03D0022D01D0032DE9D198
:103B5000032EE7D8F0BD0000FFFF00007B0C000043
:103B60007CB5069D079C002805D0860705D1460731
:103B700003D4060701D442207CBD002903D00129CB
:103B800001D00229F7D10095019400F0C1FA7CBD63
:103B9000FFB587B0109D159E169C01930295009469
:103BA00007A807C81F463346FFF7ACFF00280ED111
:103BB0001398149903AA069443C21198129901907C
:103BC0000095029107A807C83B4600F013FC0BB014
:103BD000F0BD10B507F06CF910BD70B51C4613466A
:103BE0000D46012C03D0022C03D0422070BD0222CE
:103BF00000E010221946FDF7CDFF2C70002070BDAB
:103C0000F0B587B01C460B46054600A9023101A855
:103C10000C9F0D9EFFF7E1FF00280ED1684605803E
:103C200084828775C6750E9901760F994176109931
:103C300081766946119801F047F907B0F0BD70B57B
:103C400086B014461D460A4603466946881C0A9EED
:103C5000FFF7C3FF002804D1012C04D0022C02D0AE
:103C6000422006B070BD23462A466946304601F020
:103C700075FBF6E710B501F0F9FD10BDF0B585B0A4
:103C800084460AA8F0C868468581C68103A80190C9
:103C900002970094604602F0D3F805B0F0BD10B56D
:103CA00002F01CFE10BD10B502F03AFE10BD00007F
:103CB00070B503F0F5F81D4C01252068ED0241199F
:103CC0000979002909D1A0300079C00727D002F076
:103CD00095FF02F041FF0BF0DBF900F0FFF82068E0
:103CE000014640310A78C9798A4317D13E21095CDF
:103CF000002913D10E490A8812070FD50922D206CE
:103D00001269497A836A4019006FC900801A00025B
:103D100059180012814201DA08F08AFB70BD00F0E8
:103D200049FB01F03BFC09F0CDFAD2E7FC1700207B
:103D3000C000002010B5837F012200249202416858
:103D4000082B03D94224914202D310E0914201D2C0
:103D500042240CE0014634220648FDF71BFF00F028
:103D60007FF8002801DA482401E000F027F9204616
:103D700010BD0000CC0200203EB5174D1548296843
:103D8000827F0846A0310A730024603004764476AE
:103D90008476E122C27680220277022242773020A6
:103DA00008704C7002AA01A96846FDF7D5FE684666
:103DB0000078A22201016846007A891C00020143B2
:103DC000684600790003014328681152A03004714D
:103DD0003EBD0000CC020020FC17002070B503F0AF
:103DE00045F807F07BFE06F085FD0BF065FF03F05C
:103DF00021FA184C18492068184D401881100920E4
:103E00002A68000210184167616889088167A16803
:103E10008908C1670AF05EFA0F202968C001228B69
:103E200008188281628BC281A28BC280628C02815F
:103E300022462032127882723B22520100208918D9
:103E4000087500F063FA02F095FE02F01DFE0BF01B
:103E5000A5F970BDCC0200200000FCEFFC1700208B
:103E600070B50025ED4302F0C6FE01282FD00023D7
:103E700018490322888BFF24401E10438A7F513447
:103E800062438218088B282460431218488B302420
:103E9000604312180846203040782C2460431018E4
:103EA0000D4A181884184869A0420ED11320C00189
:103EB00084420AD90D6902F09EFEC1B2284605F07F
:103EC0009BFA05F0CBFB401B251A284670BDFF234B
:103ED000B533CDE7CC02002051190000F8B52C4FC6
:103EE0003C68206E5C34401C002814D00025294812
:103EF0000023C07B00283ED00926F6062648002D68
:103F00001CD000210A460B464169521C994204D13B
:103F1000002902D004E00125E9E7204B9A42F2D3C0
:103F20002160006960603069A1680002090E000A22
:103F300009060143A16000F033F81DE03169A26871
:103F40000902090A150E08D0018BC90712D0416970
:103F5000216000696060E37210E0881A00027D232E
:103F600000121B03984205DD100E00060843A060F6
:103F700000F016F8F8BD6360002DFBD003CC08F00C
:103F800089F9FA2008F076F939688862F8BD0000EE
:103F9000FC170020EC0200200000104888130000ED
:103FA0000449002008610448012100686030C171A3
:103FB0007047000000001048FC170020F8B50626E6
:103FC000324840250560324800270780A9050920AE
:103FD000C00641602F4A9160016801602E480321AC
:103FE00004694269601E08433946401CFDF7E3FD41
:103FF00002F001FEC1B2204605F0FEF905F02EFBED
:1040000005F038FB04F0BAFB244917208881244CC2
:104010002068421901465770FA20886228201070E3
:1040200002F0E7FD012805D1206810224030017818
:10403000114301700BF012F8012805D1206880228D
:104040004030017811430170206801464030027809
:10405000324302700020C0430866FCF770FBFFF794
:104060008BFEFFF7BBFE206801212030017707217E
:104070004177012002F032FC04F0E4FBFFF72EFF51
:1040800002488038056002210160F8BD80E100E04F
:10409000C000002040000048CC0200200000104872
:1040A000FC17002038B5184A14682246BA32AE34DC
:1040B000A378DD0701D001290AD05B070CD50129BF
:1040C0000AD0217949070BD5E17A002905D007E00C
:1040D000E07880210843E07038BD0121E172508012
:1040E00020794106090FF7D0782108406946087009
:1040F000002048706A460221422000F0BDFA207973
:1041000087210840207138BDFC170020704700004F
:10411000FFB50C4678A103C995B00191009000212C
:1041200008A801730321C90268464186012108A835
:10413000734E017435681746AE350DF0F5FD002855
:1041400008D170493068401806F0BEFEA8780028F3
:1041500002D0462019B0F0BD0BA8159900F066F901
:104160000028F7D1072010A90871012C05D0022CD6
:104170000AD0002C0ED04220ECE708A8017B1020CA
:10418000014308A8017305E011A90BA800F05DF92F
:104190000028DFD110A8027901230CA9284601F0DC
:1041A000DDF800287ED1022229461898FDF7F2FC9E
:1041B00029886846818115214902018207840126E8
:1041C00086734E2108A881700024C47006710721EF
:1041D0004171867103A902A800F076FE002861D122
:1041E000022202A91E98FDF7D5FC082F02D26846CC
:1041F000478502E008206946488569460C850B46DC
:1042000028880AAA098901F0E7FD00286DD13E49F6
:10421000684601820227078408A8847103A902A8BE
:1042200000F052FE002860D1022202A91F98FDF77B
:10423000B1FC68460470694644704F850B46288877
:104240000AAA098901F0C8FD00284ED108A8007B00
:10425000C00723D02C496846C91C0182082101846B
:1042600008A88770047103A902A800F02DFE002899
:104270003BD1FF216846C1718171C170817041706D
:104280000170447104716946082048850B462888EE
:104290000AAA098901F0A0FD002826D108A8007B00
:1042A000800600E021E022D52988684681811649F0
:1042B000A53101820684867308A88770C4700471D2
:1042C00007214171847103A902A800F0FDFD0028B7
:1042D0000BD169460E700C854E850B4628880AAABC
:1042E000098901F079FD002801D0472032E708A8AC
:1042F000007BA87000202DE7626C75656E726721E7
:10430000FC170020EF060000012A000003480021EE
:104310000068AE30C170817070470000FC1700204B
:1043200038B50246174801240068AE30022A1FD073
:10433000052A03D0072A07D00B2A20D1084609797D
:104340004088FFF7AFFE1AE000790024020600D58E
:104350000124820703D1C20601D480060FD5084686
:1043600000216A461170694600F072F8044606E0C2
:104370008178490703D50179FB221140017120465C
:1043800038BD0000FC17002010B509480468AE34A1
:10439000E07880070BD5002007F03CFA022000F0FF
:1043A00043F9E07801210843FD210840E07010BD89
:1043B000FC1700201FB50E480468AE34E0780106F3
:1043C00012D5A178C9070CD0800708D5042069460A
:1043D0000873684602F03EFE022000F025F9002036
:1043E000E0704006400EE07000F02EF81FBD0000A7
:1043F000FC170020F0B58DB00C4616A9E0C90021CD
:10440000089109910A910B911599049105A9E0C1B0
:1044100012A962C9009301911346014603960295C1
:104420002246012000F046F80DB0F0BD0A07920FB9
:1044300001D0422070478A07FBD002788907890F94
:104440000A43027000207047704742207047000006
:1044500030B5174B047A1B68C268AE331B799D06D2
:10446000AD0F04D10078042801D000200BE001201A
:1044700030BD401C80B2155C012D08D01518203DC0
:10448000ED7F281880B2A042F3D3087830BD401CDD
:10449000DD07012480B2002D02D0105CC00703E0CC
:1044A0009B07F2D5105C80070028EED00C70ECE77B
:1044B000FC170020FFB595B00E46054620210CA83C
:1044C000FDF7D6FA00200490564800270468681EBD
:1044D000AE34042802D8A078C0070BD0062D02D035
:1044E000002D0AD002E0A078800703D5E0784006CE
:1044F000800E0AD0462019B0F0BDA0788007F9D010
:10450000E0784006800EF5D00FE0002D0DD0012D93
:1045100020D0022D28D0062D33D0032D33D0042DEA
:1045200037D0002E3BD04220E5E7002007F072F99B
:104530000028E0D1E078800708D504206946087398
:10454000684602F087FD022000F06EF80120E0705E
:104550000020D0E7012EE6D0042EE4D01F980028DA
:10456000E1D10627042008E0012EDCD0042EDAD0A9
:104570001F980028D7D105270220E0700120049061
:1045800010E040200DE0022E01D0032ECBD10820F8
:1045900007E0012E01D0042EC5D1102001E0042730
:1045A0002020E07000230BAA19461E9806F0E6FAB8
:1045B000030002D000F0DEF832E01022002107A84C
:1045C000FDF7F9FA07A86C46279B269A1F990FC496
:1045D0002B463046189A179900F088F80300E9D165
:1045E00008A8017BC170259803AC049B289A2999DF
:1045F0000FC422AB07CB02920091019039460CA860
:10460000209B219A00F0C0F80300D3D107A807F03F
:10461000F5FB0300CED1012007F0FCF80300C9D15F
:10462000184668E7FC17002010B50446C10611487B
:10463000006803D51522BF210C4006E0372149014F
:104640004118897AC90710D012222107890E08184B
:104650000121C90240184069002321460AF0E4FD07
:10466000010004D020460AF0CBFD002010BD072039
:1046700010BD0000FC170020F8B5891ECDB206461B
:10468000A81C03210843401C8308174817460068EC
:10469000F10603D51C22BF210E4008E03721490155
:1046A0004118897A090601D40020F8BD1922310782
:1046B000890E08180121C9024018406931460AF0E4
:1046C000B3FD04000ED03978217179786171A5713C
:1046D0002A46B91CE01DFDF75DFA214630460AF076
:1046E0008FFDE1E70720F8BDFC170020F8B5204B4F
:1046F00041251B686D015B190126069CB6030093DA
:10470000002814D0042812D0022813D0032811D076
:1047100006252B46012810D00F4617430DD0914295
:1047200003D8202901D3B2420AD94220F8BD30254E
:104730006023EFE7A025F023ECE72580638001E00C
:104740002180628020710798A071089820720998D2
:10475000002805D00146204606220930FDF71AFA46
:104760000720607100982030807B60710020F8BDC8
:10477000FC170020034881220068A030417C1140D2
:1047800041747047FC170020F8B505463E481E46A8
:104790000068079F0024AE301346002905D002228E
:1047A0002A7001226A70A9700324002E10D080782C
:1047B0008006800F0CD13019401C1F2854D82E556C
:1047C000641C281932461946FDF7E4F9A019C4B251
:1047D000002F0DD03819401C1F2845D82F55641CB8
:1047E000E4B228193A460699FDF7D4F9E019C4B2A3
:1047F0006846008C00281BD06846808C002817D0A3
:10480000601D1F2830D805202855641CE0B21221F5
:104810002954401CC4B228190646022208A9FDF7F3
:10482000B9F9B01C022209A9FDF7B4F9241DE4B2BC
:104830000C98002812D0E01C1F2815D802202855FB
:10484000641CE0B20A212954401CC4B2684607F037
:10485000D7FC684600782855641CE4B20B98002801
:104860000CD000191F2801D94220F8BD28190B9A35
:104870000A99FDF78FF90B982018C4B221462846F3
:1048800007F01AFAF8BD0000FC17002010B50D491A
:1048900000050B680921090259184A6B0021000D17
:1048A000A0331B7B0AE04C01145B2405240D8442D9
:1048B00002D14801801810BD491CC9B28B42F2D800
:1048C000002010BDFC170020F8B5069C1F461546B9
:1048D0000646002C13D0A06802220D30FDF75AF9CD
:1048E000E81E82B23B460721204606F091F8E5809B
:1048F000A068012E05D01D2101730020F8BD4720BE
:10490000F8BD1B21F8E70000F1B5FFB001248BB022
:10491000600205900027CC4807970168CB48C94D35
:10492000081803908A980AAA0005000D05A908F046
:1049300041FA0690002872D104260AA80599421867
:10494000203AD27F0B2A23D00026002004900AA808
:104950008119022201A80291FDF71CF9684681889D
:1049600009AB08AA039801F033FC012817D00228EC
:104970007ED068468088854200D30546844200D9AF
:104980002046044602988078012872D013363CE114
:10499000491E761E36040591360CCFD1D5E708980E
:1049A0000090002F66D10099022228310298FDF76D
:1049B00013F900281ED100982030017B02988078DE
:1049C000814217D1012808D10098029902220830AB
:1049D000C91CFDF701F9002815D00298807802283B
:1049E00008D10098029910220830C91CFDF7F4F88C
:1049F000002808D00098008DA84200D80546A042A3
:104A000000D22046044602990AA88978012907D0D5
:104A100013360599B6B28E4204D3012707E006E1AA
:104A2000761DF6E78119022201A8FDF7B3F8039974
:104A3000009808318E462FE084466946026A8B88CA
:104A400020300DE0918B994203D3012F7ED1994202
:104A50007CD9A94200D80D46A14200D30C46126869
:104A60008242EFD10498002804D16046006802E039
:104A700015E0BFE08AE070450ED0018D994203D366
:104A8000012F09D1994207D98D4200D30D468C429E
:104A900000D80C46012F59D17045CDD1BAE0089805
:104AA0000090002F72D1009902221C310298FDF76C
:104AB00093F800281ED100982030C17802988078A1
:104AC000814217D1012808D10098029902220830AA
:104AD000C91CFDF781F800281AD0029880780228B6
:104AE00008D10098029910220830C91CFDF774F80B
:104AF00000280DD00098808BA84200D80546A0421F
:104B000000D22046044602988078012826D003E08F
:104B100002988078012805D013360798B6B201288C
:104B20001ED021E000984A490089884216D18A980F
:104B3000FFF7ACFE0146009800F08CF80099098C54
:104B40004843009989694018022200E038E0029940
:104B5000491DFDF71FF801200790D4E7761DDCE71B
:104B6000B61C0020B6B207900598864201D30127F3
:104B700005E00AA88119022201A8FDF70BF8039AA3
:104B80000099083209980968944630E01AE0864690
:104B90006A46938820300DE08A8B9A4203D3012F16
:104BA0000ED19A420CD9AA4200D81546A24200D38F
:104BB000144609688142EFD1049800282AD102E006
:104BC0000120049026E07046006860450FD0028DF9
:104BD000016A9A4203D3012F09D19A4207D995421B
:104BE00000D31546944200D81446012FE8D1604501
:104BF000CDD10FE00298C078022805D10298007943
:104C0000292801D1B61CB6B2761D0598B6B28642E7
:104C100000D301270598811B042902D3864200D2C4
:104C200093E604980028FBD1A54203D906987FB0EB
:104C30000CB0F0BD224629468A9801F00FFB069081
:104C4000F5E70000FFFF0000FC1700202C07000024
:104C50000229000030B5024623239B5C0020012B73
:104C60001AD112890D4B9A4216D10D4A09231268A6
:104C70001B02D318A0325B6B127B0AE045010C8843
:104C80005D5B24052D05240D2D0DAC4204D0401C88
:104C9000C0B28242F2D8002030BD000002290000DC
:104CA000FC170020064909220968120289188008A9
:104CB000496B400108180188002900D10020704785
:104CC000FC17002010B50446022000F033F80D4810
:104CD00000210268092000021018A032436B107BEB
:104CE00005E04A019A5A002A04D0491CC9B28842F8
:104CF000F7D810BD48011C52C018026904210A43AC
:104D0000026110BDFC17002010B5044601460420C6
:104D100002F0C6FB002808D0044805490068401886
:104D200021463C300BF0E4F8432010BDFC17002076
:104D30002C07000004490A683B21490151180A7DEB
:104D400002430A7570470000FC17002000B51138B7
:104D5000C0B2FFF7A7FF002804D001220169520565
:104D60001143016100BD0000F3B597B00D8848887C
:104D70000590081D1DC80DAE1DC68C8ACE8A087E02
:104D80001390C86920310190087800904878049009
:104D900088780390C87802900F7900F04BFD0028C6
:104DA00017D10120400284425FD8B4425DD8002F61
:104DB00001D1B44259D114A9284601F037FA00288C
:104DC00006D115AA1499059801F020FA002802D0FE
:104DD000602019B0F0BD149D11A92846183006F0C6
:104DE000C7F810A88088002810D0284612A92030C3
:104DF00006F0BEF810A8838800892A8D1818696A01
:104E000010188A8B904203D16120E2E74820E0E746
:104E100015982C4B02899A4227D12322125C012A31
:104E200023D1006800681690139801281FD16846A6
:104E3000808E29221202801A030001F008FD060468
:104E4000180404070A18022C0FD110E0072C0CD10B
:104E50000DE0042C09D3E00707D1012F07D1A642AA
:104E600003D3042E01D3F00701D04220B1E702980A
:104E70000B90039B049A0A9309920098019A0C974D
:104E800008900696059407920DA81DC8019002A8E7
:104E90001CC013980B4600902A461699179800F0EC
:104EA000B1F9002895D168460649808EFF318842C5
:104EB00005D01798018800200A4601F0CFF900209C
:104EC00087E7000003280000F3B5A5B008881A9012
:104ED00088780C4611901022091D13A8FCF7A8FD34
:104EE000A08A1090A17D68460172E07D0F90207E1F
:104EF0002090677EA07E1F900020064601461290FB
:104F000020A801810F20BB4C2390BB49206840188A
:104F1000199000F08FFC00280BD101211098490254
:104F200088425FD821A91A9801F080F9002802D0A0
:104F3000602027B0F0BD2198179005F0BDFF1A99A9
:104F400088420CD102A801901698009013AD0ECDA6
:104F5000119805F075FF002801D06320E9E7684645
:104F6000017A8806800F05D0012012902068A030B9
:104F7000007B4600C80703D01298401CB61C129054
:104F8000080603D51298401CB61C129017980DA95C
:104F900018301D9005F0ECFF6846129C808EA41C12
:104FA000A04237D317980EA92030019005F0E0FFFA
:104FB0006846018F00290DD01798179A6B46406AF2
:104FC0009B8E128D5918808B5118081AA04201D25D
:104FD0006120AEE71798846911982568012803D0ED
:104FE000022803D04220A4E7052000E01320E0833C
:104FF0002A4639460F9805F071FF422899D0199F2B
:10500000E28B4037788B398B411A10981018801931
:10501000814201DA48208CE70EA9019805F0A8FF2B
:105020006846008F0028179802D0406A808B00E005
:10503000008D2599401C0880259801210088A083B7
:10504000259802220088401CA8836C4820812046B5
:1050500020301790C1700021817081711998398BAF
:10506000406D40186946A061097A0170A06929461F
:105070001C31401CFCF78EFD11980128A0697DD0E1
:10508000102213A9C01CFCF785FD2846102213A985
:105090000830FCF77FFD388B133038832E462036DE
:1050A0001198F0701098E8831F98B07010982084C1
:1050B000109828841998398B406D4018A8610021F8
:1050C000109AFCF778FD398B1098081838831799D7
:1050D0000120087117990020487130716846007AE4
:1050E000810701D50121317101070227002902DA68
:1050F000317939433171410703D5317904221143A4
:105100003171400603D530790821084330710F987A
:1051100070712098B07121461D9805F052FF21460C
:10512000019805F02FFF29461D9805F04AFF2946F2
:10513000019805F027FF1298002841D068461A9977
:105140008181A18BC18107844784012408A804714F
:1051500022A80A9008A88473239941730F993820D4
:10516000014008A801730721C17300250574684632
:10517000007AC00708D02248694600E02BE0088288
:1051800003A924A8FFF7F0FD6846007A8006800F87
:1051900007D01B486946401E088203A924A8FFF7D0
:1051A000E3FD6846007A00060AD52921090268460F
:1051B000018208A84473057303A924A8FFF7D4FD4E
:1051C000259801881298401C081882B2002001F02E
:1051D00045F80020ADE6022213A9C01CFCF7DAFC5A
:1051E0002846022213A90830FCF7D4FC388B401D56
:1051F00053E70000FC1700202C07000003280000E4
:1052000003290000FFB55248524A006887B082184F
:10521000069210AA109B0126169F9288012B04D19A
:105220004D4B9A4201D1A030067B069D3446403555
:10523000688B2B8B7C43C31A099820300390A342C0
:1052400022DA48200BB0F0BD2320405C012819D1A0
:1052500008896C46208098420CD03F4C641EA042C6
:1052600008D0641CA04205D0641CA04202D0A41C3B
:10527000A04207D1384CFF3CA04201D0904201D15E
:105280006220DFE7096801E029231B0203988142BD
:10529000DAD109981B9984691898224605F01EFEF8
:1052A0004228CFD01C98012804D11598874201D2FA
:1052B0004220C7E71598E083204620301C990590CE
:1052C000817027840A98808B401CA0831098012845
:1052D00014D02046102211A90830FCF75BFC059978
:1052E0001098C8700698298B406D4018A061298BD2
:1052F000384670430818288300250FE011A80FC80E
:1053000008340FC4183CEAE72846A1697843081816
:10531000159A1799FCF73EFC6D1CEDB2B542F3D31C
:1053200005991898487105991998087105991A985E
:10533000887109982146183005F043FE21460398EC
:1053400005F020FE0798A18B018000207AE700007D
:10535000FC1700202C07000002290000FFB58FB0C9
:1053600014460E78102205A8891CFCF761FB4F48F3
:105370004F490068451800F05DFA00281ED1002C46
:1053800057D0012E09D16846808A4A49884204D103
:105390002846A968083081424BD128461030296937
:1053A0000390814209D00AA9284605F0E1FD68462C
:1053B000018D601E0D90814202D2482013B0F0BDD5
:1053C000284608300CA9049005F0D2FD6846008EEE
:1053D000002814D0EF680AA93846183005F0C8FD37
:1053E000384620300CA905F0C3FD6846398D008D84
:1053F00009186846008E401C081887B200E0012793
:1054000001200004C01BA04201D26120D6E72C6914
:10541000286801901298012802D0022803D008E0E1
:105420000520C00200E024486085012E03D0022E32
:1054300005D04220C2E720460830022202E0204682
:105440000830102205A9FCF7A5FB20463146203084
:10545000064601730F98214607802785039805F0BB
:10546000B0FD2146049805F08DFD27461837E76109
:105470006662A76126620D9884B20BE02846019906
:1054800005F09FFD3846019905F07CFD2868641EF3
:10549000A4B20190002CF1D10F9801880D98081842
:1054A00082B2002000F0DAFE002087E7FC1700201F
:1054B0002C070000011800000128000002460848DF
:1054C0000849006841188868083103E0038D934259
:1054D00002D200688842F9D1884200D1002070478A
:1054E000FC1700202C070000034610B50E480F499A
:1054F000006841188868083103E0148D9C4203D885
:10550000104602688A42F8D18A420CD1018D994234
:1055100009D20146026A20318A4203D0416A898B4E
:10552000994200D2002010BDFC1700202C0700007B
:10553000024610B50B481205016809200002081840
:10554000436B0020120DA031097B07E044011C5B76
:105550002405240D944203D0401CC0B28142F5D8EA
:1055600010BD0000FC170020F7B50546174601984E
:105570000AF08EFC2E050446360D0CE0A088256846
:10558000B04207D1214601980AF0CFFC39462046A7
:1055900005F0EAF92C46002CF0D1FEBDF0B58BB039
:1055A00000206349029063480A68141872B61046D6
:1055B0004030C57902231D43C57162B6254640358A
:1055C000287AC0077DD00920000210180026476BFA
:1055D00049E071017A5A002A43D0C9190691096934
:1055E0004A021ED48A0226D502210491069901237B
:1055F00009880905090D0391372149014118097BE3
:1056000089070ED5D90208304018232240690221AB
:1056100009F00AFE010004D0039A8A80049809F078
:10562000EFFD069800880090069800F085F8009835
:1056300008F08AFF15E0480713D506980088000592
:10564000000D08F013FF002805D10698008800051A
:10565000000DFFF759F9069904200969814306985E
:105660000161761CF6B23248AC210068095CB14297
:10567000AFD800F01BFF2046243006460AF04EFC4F
:10568000012802D0012000F015FE204618300AF053
:1056900045FC012802D0002000F00CFE3C342046DE
:1056A0000AF03CFC01280FD002A920460AF05FFC5A
:1056B0000420029901F0F4FE0028F0D0204602995F
:1056C00000E032E00AF001FC287A00062DD53046D1
:1056D0000AF024FC012828D1002005F0C5F8A98B88
:1056E00023314909491CC9B2FAF770FD00281CD0C2
:1056F0000F4D044628680123D9020830401842267D
:1057000038224069314609F08FFD01000DD000229A
:105710008A80CC80304609F073FD3B212A6849011C
:1057200051180A7D802082430A750BB0F0BD00003D
:10573000FC1700202C070000F0B504463B483C490C
:10574000006885B04518218A890419D50221049181
:10575000372149014118897B412627880123C90740
:105760000ED0D9020830401831224069022109F0D8
:105770005BFD010004D08F808E71049809F040FD1C
:105780002946208801221831FFF7EEFE294620889D
:1057900001223031FFF7E8FE29462088012224311A
:1057A000FFF7E2FE2946208800223C31FFF7DCFEAD
:1057B00020880005000DFFF7BBFE8500294611314A
:1057C0006846017301F046FC2946123168460173B0
:1057D00001F040FC294613316846017301F03AFCA0
:1057E00068461435057301F035FC208800F03CFA5A
:1057F000208801050D48090D026825208001101838
:10580000028B914201D100210183E069002802D07E
:10581000012105F0A9F8202200212046A568FCF707
:10582000CAF91720A560608005B0F0BDFC17002004
:105830002C07000010B50B480B4900684418403491
:10584000207AC00709D0002005F00EF8217A8907D8
:1058500001D5002803D0002010BD472010BD6420D2
:1058600010BD0000FC1700202C070000F0B55FA061
:1058700099B000685E4915905E4A0868841809224C
:1058800012028218526B2546403514922A7AD207AA
:1058900002D0622019B0F0BDAA8B01235B029A42AC
:1058A00001D9AB8303E0172A01D21722AA83149AE5
:1058B000A0301392067B0DE0761EF6B213987101AC
:1058C0000F18B8680F90384620220021FCF773F9B2
:1058D0000F98B860002EEFD120460830E060646079
:1058E000A06024600830139060612061FF220021D5
:1058F00008300AF0E2FA2046FF22002124300AF0A4
:10590000DCFA2046AA7F002130300AF0D6FA204681
:10591000FF2200213C300AF0D0FA00222A72104601
:105920001721334B05E0149E4701BE19401C7180BE
:10593000C0B21E68A036367B8642F4D80020288389
:105940002F8C688C0026149008E02820E16C7043AE
:105950000918204605F016FB761CB6B2BE42F4D3F9
:10596000002608E03020216D70430918139805F0D7
:1059700009FB761CB6B214988642F3D30120FFF7D8
:10598000D9F90124684604701B494180234604224A
:1059900069460CA8FFF7E2FC002822D16846018E78
:1059A000818216490183042606858475202108A872
:1059B00081720024C472047307214173847305A9A2
:1059C0000DA8FFF781FA00280BD1684604874687A7
:1059D000818E15AB0EAA008E00F0FEF9002800D1D2
:1059E00058E700202872472054E700000000FFFF1E
:1059F000FC1700202C07000001180000052A0000F9
:105A0000F8B5044683480E46006883494718482085
:105A1000C05DC0076FD0B088FEF738FF0546012C87
:105A200002D0002C68D0F3E0002D04D02869410793
:105A300003D54520F8BD0121C7E0B268F188147B89
:105A40000029F0D062060AD568888842F3D3D22CA8
:105A500001D0522CEFD138463146183048E0A1062B
:105A6000890E1E2949D81E2C20D101071ED50821D8
:105A7000884328612988012005F06CFA012130460D
:105A800004F072FF634801230068D902083040180F
:105A900042242D8839224069214609F0C5FB0100C6
:105AA00003D08D80204609F0ABFBB1E0E1070BD0BD
:105AB0001D2C1AD01B2C18D0410533D4012189028A
:105AC0000843EE612861A3E0C00606D52B460222FA
:105AD0000321422000F07EFEADE72988002005F07A
